{
	"data": {
		"bytecode": {
			"linkReferences": {},
			"object": "60806040523480156200001157600080fd5b50604051620012cd380380620012cd8339818101604052810190620000379190620000f8565b80600160006101000a81548173ffffffffffffffffffffffffffffffffffffffff021916908373ffffffffffffffffffffffffffffffffffffffff160217905550600160009054906101000a900473ffffffffffffffffffffffffffffffffffffffff166000806101000a81548173ffffffffffffffffffffffffffffffffffffffff021916908373ffffffffffffffffffffffffffffffffffffffff160217905550506200017d565b600081519050620000f28162000163565b92915050565b6000602082840312156200011157620001106200015e565b5b60006200012184828501620000e1565b91505092915050565b600062000137826200013e565b9050919050565b600073ffffffffffffffffffffffffffffffffffffffff82169050919050565b600080fd5b6200016e816200012a565b81146200017a57600080fd5b50565b611140806200018d6000396000f3fe608060405234801561001057600080fd5b50600436106100365760003560e01c80631a670a741461003b578063f529f7b71461006b575b600080fd5b61005560048036038101906100509190610b06565b61009b565b6040516100629190610d6e565b60405180910390f35b61008560048036038101906100809190610b66565b610708565b6040516100929190610d6e565b60405180910390f35b6060833360008054906101000a900473ffffffffffffffffffffffffffffffffffffffff1673ffffffffffffffffffffffffffffffffffffffff1663a9059cbb600160009054906101000a900473ffffffffffffffffffffffffffffffffffffffff16846040518363ffffffff1660e01b815260040161011c929190610d45565b600060405180830381600087803b15801561013657600080fd5b505af115801561014a573d6000803e3d6000fd5b5050505060405160200161015d90610cd6565b604051602081830303815290604052805190602001208585604051602001610186929190610cbd565b6040516020818303038152906040528051906020012014806101f357506040516020016101b290610d15565b6040516020818303038152906040528051906020012085856040516020016101db929190610cbd565b60405160208183030381529060405280519060200120145b80610249575060405160200161020890610d00565b604051602081830303815290604052805190602001208585604051602001610231929190610cbd565b60405160208183030381529060405280519060200120145b61025257600080fd5b60006102a533600188888080601f016020809104026020016040519081016040528093929190818152602001838380828437600081840152601f19601f820116905080830192505050505050508a610912565b905060008161ffff1614801561030657506040516020016102c590610d00565b6040516020818303038152906040528051906020012086866040516020016102ee929190610cbd565b60405160208183030381529060405280519060200120145b8061036c575060638161ffff1614801561036b575060405160200161032a90610d00565b604051602081830303815290604052805190602001208686604051602001610353929190610cbd565b60405160208183030381529060405280519060200120145b5b156104485760008054906101000a900473ffffffffffffffffffffffffffffffffffffffff1673ffffffffffffffffffffffffffffffffffffffff166340c10f1933600f8a6103bb9190610e43565b6040518363ffffffff1660e01b81526004016103d8929190610d45565b600060405180830381600087803b1580156103f257600080fd5b505af1158015610406573d6000803e3d6000fd5b505050506040518060400160405280601281526020017f434f4e475241545321203135782057494e2100000000000000000000000000008152509350506106ff565b60405160200161045790610ceb565b604051602081830303815290604052805190602001208686604051602001610480929190610cbd565b604051602081830303815290604052805190602001201480156104a8575060018161ffff1610155b80156104b9575060318161ffff1611155b156105955760008054906101000a900473ffffffffffffffffffffffffffffffffffffffff1673ffffffffffffffffffffffffffffffffffffffff166340c10f193360028a6105089190610e43565b6040518363ffffffff1660e01b8152600401610525929190610d45565b600060405180830381600087803b15801561053f57600080fd5b505af1158015610553573d6000803e3d6000fd5b505050506040518060400160405280601181526020017f436f6e6772617473212032782077696e210000000000000000000000000000008152509350506106ff565b6040516020016105a490610cd6565b6040516020818303038152906040528051906020012086866040516020016105cd929190610cbd565b604051602081830303815290604052805190602001201480156105f5575060328161ffff1610155b8015610606575060628161ffff1611155b156106e25760008054906101000a900473ffffffffffffffffffffffffffffffffffffffff1673ffffffffffffffffffffffffffffffffffffffff166340c10f193360028a6106559190610e43565b6040518363ffffffff1660e01b8152600401610672929190610d45565b600060405180830381600087803b15801561068c57600080fd5b505af11580156106a0573d6000803e3d6000fd5b505050506040518060400160405280601181526020017f436f6e6772617473212032782077696e210000000000000000000000000000008152509350506106ff565b6040518060600160405280602681526020016110b5602691399350505b50509392505050565b6060823360008054906101000a900473ffffffffffffffffffffffffffffffffffffffff1673ffffffffffffffffffffffffffffffffffffffff1663a9059cbb600160009054906101000a900473ffffffffffffffffffffffffffffffffffffffff16846040518363ffffffff1660e01b8152600401610789929190610d45565b600060405180830381600087803b1580156107a357600080fd5b505af11580156107b7573d6000803e3d6000fd5b5050505060008461ffff16101580156107d5575060638461ffff1611155b6107de57600080fd5b600061082133866040518060400160405280600481526020017f54454d500000000000000000000000000000000000000000000000000000000081525089610912565b90508461ffff168161ffff1614156108ed5760008054906101000a900473ffffffffffffffffffffffffffffffffffffffff1673ffffffffffffffffffffffffffffffffffffffff166340c10f193360648961087d9190610e43565b6040518363ffffffff1660e01b815260040161089a929190610d45565b600060405180830381600087803b1580156108b457600080fd5b505af11580156108c8573d6000803e3d6000fd5b505050506040518060600160405280603081526020016110db6030913993505061090a565b6040518060600160405280602681526020016110b5602691399350505b505092915050565b600080434060001c905060008660405160200161092f9190610d2a565b6040516020818303038152906040528051906020012060001c905060008660405160200161095d9190610d90565b6040516020818303038152906040528051906020012060001c905060008660405160200161098b9190610d6e565b6040516020818303038152906040528051906020012060001c90506000866040516020016109b99190610dab565b6040516020818303038152906040528051906020012060001c905060646103e8826109e49190610f29565b6103e8846109f29190610f29565b6103e886610a009190610f29565b6103e888610a0e9190610f29565b6103e88a610a1c9190610f29565b610a269190610ded565b610a309190610ded565b610a3a9190610ded565b610a449190610ded565b604051602001610a549190610dab565b6040516020818303038152906040528051906020012060001c610a779190610f29565b95505050505050949350505050565b60008083601f840112610a9c57610a9b610fbd565b5b8235905067ffffffffffffffff811115610ab957610ab8610fb8565b5b602083019150836001820283011115610ad557610ad4610fc2565b5b9250929050565b600081359050610aeb81611086565b92915050565b600081359050610b008161109d565b92915050565b600080600060408486031215610b1f57610b1e610fcc565b5b6000610b2d86828701610af1565b935050602084013567ffffffffffffffff811115610b4e57610b4d610fc7565b5b610b5a86828701610a86565b92509250509250925092565b60008060408385031215610b7d57610b7c610fcc565b5b6000610b8b85828601610af1565b9250506020610b9c85828601610adc565b9150509250929050565b610baf81610e9d565b82525050565b6000610bc18385610de2565b9350610bce838584610ee7565b82840190509392505050565b6000610be582610dc6565b610bef8185610dd1565b9350610bff818560208601610ef6565b610c0881610fd1565b840191505092915050565b6000610c20600383610de2565b9150610c2b82610fe2565b600382019050919050565b6000610c43600583610de2565b9150610c4e8261100b565b600582019050919050565b6000610c66600583610de2565b9150610c7182611034565b600582019050919050565b6000610c89600483610de2565b9150610c948261105d565b600482019050919050565b610ca881610eaf565b82525050565b610cb781610edd565b82525050565b6000610cca828486610bb5565b91508190509392505050565b6000610ce182610c13565b9150819050919050565b6000610cf682610c36565b9150819050919050565b6000610d0b82610c59565b9150819050919050565b6000610d2082610c7c565b9150819050919050565b6000602082019050610d3f6000830184610ba6565b92915050565b6000604082019050610d5a6000830185610ba6565b610d676020830184610cae565b9392505050565b60006020820190508181036000830152610d888184610bda565b905092915050565b6000602082019050610da56000830184610c9f565b92915050565b6000602082019050610dc06000830184610cae565b92915050565b600081519050919050565b600082825260208201905092915050565b600081905092915050565b6000610df882610edd565b9150610e0383610edd565b9250827fffffffffffffffffffffffffffffffffffffffffffffffffffffffffffffffff03821115610e3857610e37610f5a565b5b828201905092915050565b6000610e4e82610edd565b9150610e5983610edd565b9250817fffffffffffffffffffffffffffffffffffffffffffffffffffffffffffffffff0483118215151615610e9257610e91610f5a565b5b828202905092915050565b6000610ea882610ebd565b9050919050565b600061ffff82169050919050565b600073ffffffffffffffffffffffffffffffffffffffff82169050919050565b6000819050919050565b82818337600083830152505050565b60005b83811015610f14578082015181840152602081019050610ef9565b83811115610f23576000848401525b50505050565b6000610f3482610edd565b9150610f3f83610edd565b925082610f4f57610f4e610f89565b5b828206905092915050565b7f4e487b7100000000000000000000000000000000000000000000000000000000600052601160045260246000fd5b7f4e487b7100000000000000000000000000000000000000000000000000000000600052601260045260246000fd5b600080fd5b600080fd5b600080fd5b600080fd5b600080fd5b6000601f19601f8301169050919050565b7f7265640000000000000000000000000000000000000000000000000000000000600082015250565b7f626c61636b000000000000000000000000000000000000000000000000000000600082015250565b7f677265656e000000000000000000000000000000000000000000000000000000600082015250565b7f626c756500000000000000000000000000000000000000000000000000000000600082015250565b61108f81610eaf565b811461109a57600080fd5b50565b6110a681610edd565b81146110b157600080fd5b5056fe596f752068617665206c6f73742e20556e666f7274756e6174652e2054727920616761696e21434f4e47524154532120594f552048415645204a55535420574f4e2041205355504552205052495a4521207831303021a2646970667358221220a10c5637b4fdf40855ddb2b17aaa847b9375fdcb1e4f0aee0314990c8028ee3364736f6c63430008070033",
			"opcodes": "PUSH1 0x80 PUSH1 0x40 MSTORE CALLVALUE DUP1 ISZERO PUSH3 0x11 JUMPI PUSH1 0x0 DUP1 REVERT JUMPDEST POP PUSH1 0x40 MLOAD PUSH3 0x12CD CODESIZE SUB DUP1 PUSH3 0x12CD DUP4 CODECOPY DUP2 DUP2 ADD PUSH1 0x40 MSTORE DUP2 ADD SWAP1 PUSH3 0x37 SWAP2 SWAP1 PUSH3 0xF8 JUMP JUMPDEST DUP1 PUSH1 0x1 PUSH1 0x0 PUSH2 0x100 EXP DUP2 SLOAD DUP2 PUSH20 0xFFFFFFFFFFFFFFFFFFFFFFFFFFFFFFFFFFFFFFFF MUL NOT AND SWAP1 DUP4 PUSH20 0xFFFFFFFFFFFFFFFFFFFFFFFFFFFFFFFFFFFFFFFF AND MUL OR SWAP1 SSTORE POP PUSH1 0x1 PUSH1 0x0 SWAP1 SLOAD SWAP1 PUSH2 0x100 EXP SWAP1 DIV PUSH20 0xFFFFFFFFFFFFFFFFFFFFFFFFFFFFFFFFFFFFFFFF AND PUSH1 0x0 DUP1 PUSH2 0x100 EXP DUP2 SLOAD DUP2 PUSH20 0xFFFFFFFFFFFFFFFFFFFFFFFFFFFFFFFFFFFFFFFF MUL NOT AND SWAP1 DUP4 PUSH20 0xFFFFFFFFFFFFFFFFFFFFFFFFFFFFFFFFFFFFFFFF AND MUL OR SWAP1 SSTORE POP POP PUSH3 0x17D JUMP JUMPDEST PUSH1 0x0 DUP2 MLOAD SWAP1 POP PUSH3 0xF2 DUP2 PUSH3 0x163 JUMP JUMPDEST SWAP3 SWAP2 POP POP JUMP JUMPDEST PUSH1 0x0 PUSH1 0x20 DUP3 DUP5 SUB SLT ISZERO PUSH3 0x111 JUMPI PUSH3 0x110 PUSH3 0x15E JUMP JUMPDEST JUMPDEST PUSH1 0x0 PUSH3 0x121 DUP5 DUP3 DUP6 ADD PUSH3 0xE1 JUMP JUMPDEST SWAP2 POP POP SWAP3 SWAP2 POP POP JUMP JUMPDEST PUSH1 0x0 PUSH3 0x137 DUP3 PUSH3 0x13E JUMP JUMPDEST SWAP1 POP SWAP2 SWAP1 POP JUMP JUMPDEST PUSH1 0x0 PUSH20 0xFFFFFFFFFFFFFFFFFFFFFFFFFFFFFFFFFFFFFFFF DUP3 AND SWAP1 POP SWAP2 SWAP1 POP JUMP JUMPDEST PUSH1 0x0 DUP1 REVERT JUMPDEST PUSH3 0x16E DUP2 PUSH3 0x12A JUMP JUMPDEST DUP2 EQ PUSH3 0x17A JUMPI PUSH1 0x0 DUP1 REVERT JUMPDEST POP JUMP JUMPDEST PUSH2 0x1140 DUP1 PUSH3 0x18D PUSH1 0x0 CODECOPY PUSH1 0x0 RETURN INVALID PUSH1 0x80 PUSH1 0x40 MSTORE CALLVALUE DUP1 ISZERO PUSH2 0x10 JUMPI PUSH1 0x0 DUP1 REVERT JUMPDEST POP PUSH1 0x4 CALLDATASIZE LT PUSH2 0x36 JUMPI PUSH1 0x0 CALLDATALOAD PUSH1 0xE0 SHR DUP1 PUSH4 0x1A670A74 EQ PUSH2 0x3B JUMPI DUP1 PUSH4 0xF529F7B7 EQ PUSH2 0x6B JUMPI JUMPDEST PUSH1 0x0 DUP1 REVERT JUMPDEST PUSH2 0x55 PUSH1 0x4 DUP1 CALLDATASIZE SUB DUP2 ADD SWAP1 PUSH2 0x50 SWAP2 SWAP1 PUSH2 0xB06 JUMP JUMPDEST PUSH2 0x9B JUMP JUMPDEST PUSH1 0x40 MLOAD PUSH2 0x62 SWAP2 SWAP1 PUSH2 0xD6E JUMP JUMPDEST PUSH1 0x40 MLOAD DUP1 SWAP2 SUB SWAP1 RETURN JUMPDEST PUSH2 0x85 PUSH1 0x4 DUP1 CALLDATASIZE SUB DUP2 ADD SWAP1 PUSH2 0x80 SWAP2 SWAP1 PUSH2 0xB66 JUMP JUMPDEST PUSH2 0x708 JUMP JUMPDEST PUSH1 0x40 MLOAD PUSH2 0x92 SWAP2 SWAP1 PUSH2 0xD6E JUMP JUMPDEST PUSH1 0x40 MLOAD DUP1 SWAP2 SUB SWAP1 RETURN JUMPDEST PUSH1 0x60 DUP4 CALLER PUSH1 0x0 DUP1 SLOAD SWAP1 PUSH2 0x100 EXP SWAP1 DIV PUSH20 0xFFFFFFFFFFFFFFFFFFFFFFFFFFFFFFFFFFFFFFFF AND PUSH20 0xFFFFFFFFFFFFFFFFFFFFFFFFFFFFFFFFFFFFFFFF AND PUSH4 0xA9059CBB PUSH1 0x1 PUSH1 0x0 SWAP1 SLOAD SWAP1 PUSH2 0x100 EXP SWAP1 DIV PUSH20 0xFFFFFFFFFFFFFFFFFFFFFFFFFFFFFFFFFFFFFFFF AND DUP5 PUSH1 0x40 MLOAD DUP4 PUSH4 0xFFFFFFFF AND PUSH1 0xE0 SHL DUP2 MSTORE PUSH1 0x4 ADD PUSH2 0x11C SWAP3 SWAP2 SWAP1 PUSH2 0xD45 JUMP JUMPDEST PUSH1 0x0 PUSH1 0x40 MLOAD DUP1 DUP4 SUB DUP2 PUSH1 0x0 DUP8 DUP1 EXTCODESIZE ISZERO DUP1 ISZERO PUSH2 0x136 JUMPI PUSH1 0x0 DUP1 REVERT JUMPDEST POP GAS CALL ISZERO DUP1 ISZERO PUSH2 0x14A JUMPI RETURNDATASIZE PUSH1 0x0 DUP1 RETURNDATACOPY RETURNDATASIZE PUSH1 0x0 REVERT JUMPDEST POP POP POP POP PUSH1 0x40 MLOAD PUSH1 0x20 ADD PUSH2 0x15D SWAP1 PUSH2 0xCD6 JUMP JUMPDEST PUSH1 0x40 MLOAD PUSH1 0x20 DUP2 DUP4 SUB SUB DUP2 MSTORE SWAP1 PUSH1 0x40 MSTORE DUP1 MLOAD SWAP1 PUSH1 0x20 ADD KECCAK256 DUP6 DUP6 PUSH1 0x40 MLOAD PUSH1 0x20 ADD PUSH2 0x186 SWAP3 SWAP2 SWAP1 PUSH2 0xCBD JUMP JUMPDEST PUSH1 0x40 MLOAD PUSH1 0x20 DUP2 DUP4 SUB SUB DUP2 MSTORE SWAP1 PUSH1 0x40 MSTORE DUP1 MLOAD SWAP1 PUSH1 0x20 ADD KECCAK256 EQ DUP1 PUSH2 0x1F3 JUMPI POP PUSH1 0x40 MLOAD PUSH1 0x20 ADD PUSH2 0x1B2 SWAP1 PUSH2 0xD15 JUMP JUMPDEST PUSH1 0x40 MLOAD PUSH1 0x20 DUP2 DUP4 SUB SUB DUP2 MSTORE SWAP1 PUSH1 0x40 MSTORE DUP1 MLOAD SWAP1 PUSH1 0x20 ADD KECCAK256 DUP6 DUP6 PUSH1 0x40 MLOAD PUSH1 0x20 ADD PUSH2 0x1DB SWAP3 SWAP2 SWAP1 PUSH2 0xCBD JUMP JUMPDEST PUSH1 0x40 MLOAD PUSH1 0x20 DUP2 DUP4 SUB SUB DUP2 MSTORE SWAP1 PUSH1 0x40 MSTORE DUP1 MLOAD SWAP1 PUSH1 0x20 ADD KECCAK256 EQ JUMPDEST DUP1 PUSH2 0x249 JUMPI POP PUSH1 0x40 MLOAD PUSH1 0x20 ADD PUSH2 0x208 SWAP1 PUSH2 0xD00 JUMP JUMPDEST PUSH1 0x40 MLOAD PUSH1 0x20 DUP2 DUP4 SUB SUB DUP2 MSTORE SWAP1 PUSH1 0x40 MSTORE DUP1 MLOAD SWAP1 PUSH1 0x20 ADD KECCAK256 DUP6 DUP6 PUSH1 0x40 MLOAD PUSH1 0x20 ADD PUSH2 0x231 SWAP3 SWAP2 SWAP1 PUSH2 0xCBD JUMP JUMPDEST PUSH1 0x40 MLOAD PUSH1 0x20 DUP2 DUP4 SUB SUB DUP2 MSTORE SWAP1 PUSH1 0x40 MSTORE DUP1 MLOAD SWAP1 PUSH1 0x20 ADD KECCAK256 EQ JUMPDEST PUSH2 0x252 JUMPI PUSH1 0x0 DUP1 REVERT JUMPDEST PUSH1 0x0 PUSH2 0x2A5 CALLER PUSH1 0x1 DUP9 DUP9 DUP1 DUP1 PUSH1 0x1F ADD PUSH1 0x20 DUP1 SWAP2 DIV MUL PUSH1 0x20 ADD PUSH1 0x40 MLOAD SWAP1 DUP2 ADD PUSH1 0x40 MSTORE DUP1 SWAP4 SWAP3 SWAP2 SWAP1 DUP2 DUP2 MSTORE PUSH1 0x20 ADD DUP4 DUP4 DUP1 DUP3 DUP5 CALLDATACOPY PUSH1 0x0 DUP2 DUP5 ADD MSTORE PUSH1 0x1F NOT PUSH1 0x1F DUP3 ADD AND SWAP1 POP DUP1 DUP4 ADD SWAP3 POP POP POP POP POP POP POP DUP11 PUSH2 0x912 JUMP JUMPDEST SWAP1 POP PUSH1 0x0 DUP2 PUSH2 0xFFFF AND EQ DUP1 ISZERO PUSH2 0x306 JUMPI POP PUSH1 0x40 MLOAD PUSH1 0x20 ADD PUSH2 0x2C5 SWAP1 PUSH2 0xD00 JUMP JUMPDEST PUSH1 0x40 MLOAD PUSH1 0x20 DUP2 DUP4 SUB SUB DUP2 MSTORE SWAP1 PUSH1 0x40 MSTORE DUP1 MLOAD SWAP1 PUSH1 0x20 ADD KECCAK256 DUP7 DUP7 PUSH1 0x40 MLOAD PUSH1 0x20 ADD PUSH2 0x2EE SWAP3 SWAP2 SWAP1 PUSH2 0xCBD JUMP JUMPDEST PUSH1 0x40 MLOAD PUSH1 0x20 DUP2 DUP4 SUB SUB DUP2 MSTORE SWAP1 PUSH1 0x40 MSTORE DUP1 MLOAD SWAP1 PUSH1 0x20 ADD KECCAK256 EQ JUMPDEST DUP1 PUSH2 0x36C JUMPI POP PUSH1 0x63 DUP2 PUSH2 0xFFFF AND EQ DUP1 ISZERO PUSH2 0x36B JUMPI POP PUSH1 0x40 MLOAD PUSH1 0x20 ADD PUSH2 0x32A SWAP1 PUSH2 0xD00 JUMP JUMPDEST PUSH1 0x40 MLOAD PUSH1 0x20 DUP2 DUP4 SUB SUB DUP2 MSTORE SWAP1 PUSH1 0x40 MSTORE DUP1 MLOAD SWAP1 PUSH1 0x20 ADD KECCAK256 DUP7 DUP7 PUSH1 0x40 MLOAD PUSH1 0x20 ADD PUSH2 0x353 SWAP3 SWAP2 SWAP1 PUSH2 0xCBD JUMP JUMPDEST PUSH1 0x40 MLOAD PUSH1 0x20 DUP2 DUP4 SUB SUB DUP2 MSTORE SWAP1 PUSH1 0x40 MSTORE DUP1 MLOAD SWAP1 PUSH1 0x20 ADD KECCAK256 EQ JUMPDEST JUMPDEST ISZERO PUSH2 0x448 JUMPI PUSH1 0x0 DUP1 SLOAD SWAP1 PUSH2 0x100 EXP SWAP1 DIV PUSH20 0xFFFFFFFFFFFFFFFFFFFFFFFFFFFFFFFFFFFFFFFF AND PUSH20 0xFFFFFFFFFFFFFFFFFFFFFFFFFFFFFFFFFFFFFFFF AND PUSH4 0x40C10F19 CALLER PUSH1 0xF DUP11 PUSH2 0x3BB SWAP2 SWAP1 PUSH2 0xE43 JUMP JUMPDEST PUSH1 0x40 MLOAD DUP4 PUSH4 0xFFFFFFFF AND PUSH1 0xE0 SHL DUP2 MSTORE PUSH1 0x4 ADD PUSH2 0x3D8 SWAP3 SWAP2 SWAP1 PUSH2 0xD45 JUMP JUMPDEST PUSH1 0x0 PUSH1 0x40 MLOAD DUP1 DUP4 SUB DUP2 PUSH1 0x0 DUP8 DUP1 EXTCODESIZE ISZERO DUP1 ISZERO PUSH2 0x3F2 JUMPI PUSH1 0x0 DUP1 REVERT JUMPDEST POP GAS CALL ISZERO DUP1 ISZERO PUSH2 0x406 JUMPI RETURNDATASIZE PUSH1 0x0 DUP1 RETURNDATACOPY RETURNDATASIZE PUSH1 0x0 REVERT JUMPDEST POP POP POP POP PUSH1 0x40 MLOAD DUP1 PUSH1 0x40 ADD PUSH1 0x40 MSTORE DUP1 PUSH1 0x12 DUP2 MSTORE PUSH1 0x20 ADD PUSH32 0x434F4E475241545321203135782057494E210000000000000000000000000000 DUP2 MSTORE POP SWAP4 POP POP PUSH2 0x6FF JUMP JUMPDEST PUSH1 0x40 MLOAD PUSH1 0x20 ADD PUSH2 0x457 SWAP1 PUSH2 0xCEB JUMP JUMPDEST PUSH1 0x40 MLOAD PUSH1 0x20 DUP2 DUP4 SUB SUB DUP2 MSTORE SWAP1 PUSH1 0x40 MSTORE DUP1 MLOAD SWAP1 PUSH1 0x20 ADD KECCAK256 DUP7 DUP7 PUSH1 0x40 MLOAD PUSH1 0x20 ADD PUSH2 0x480 SWAP3 SWAP2 SWAP1 PUSH2 0xCBD JUMP JUMPDEST PUSH1 0x40 MLOAD PUSH1 0x20 DUP2 DUP4 SUB SUB DUP2 MSTORE SWAP1 PUSH1 0x40 MSTORE DUP1 MLOAD SWAP1 PUSH1 0x20 ADD KECCAK256 EQ DUP1 ISZERO PUSH2 0x4A8 JUMPI POP PUSH1 0x1 DUP2 PUSH2 0xFFFF AND LT ISZERO JUMPDEST DUP1 ISZERO PUSH2 0x4B9 JUMPI POP PUSH1 0x31 DUP2 PUSH2 0xFFFF AND GT ISZERO JUMPDEST ISZERO PUSH2 0x595 JUMPI PUSH1 0x0 DUP1 SLOAD SWAP1 PUSH2 0x100 EXP SWAP1 DIV PUSH20 0xFFFFFFFFFFFFFFFFFFFFFFFFFFFFFFFFFFFFFFFF AND PUSH20 0xFFFFFFFFFFFFFFFFFFFFFFFFFFFFFFFFFFFFFFFF AND PUSH4 0x40C10F19 CALLER PUSH1 0x2 DUP11 PUSH2 0x508 SWAP2 SWAP1 PUSH2 0xE43 JUMP JUMPDEST PUSH1 0x40 MLOAD DUP4 PUSH4 0xFFFFFFFF AND PUSH1 0xE0 SHL DUP2 MSTORE PUSH1 0x4 ADD PUSH2 0x525 SWAP3 SWAP2 SWAP1 PUSH2 0xD45 JUMP JUMPDEST PUSH1 0x0 PUSH1 0x40 MLOAD DUP1 DUP4 SUB DUP2 PUSH1 0x0 DUP8 DUP1 EXTCODESIZE ISZERO DUP1 ISZERO PUSH2 0x53F JUMPI PUSH1 0x0 DUP1 REVERT JUMPDEST POP GAS CALL ISZERO DUP1 ISZERO PUSH2 0x553 JUMPI RETURNDATASIZE PUSH1 0x0 DUP1 RETURNDATACOPY RETURNDATASIZE PUSH1 0x0 REVERT JUMPDEST POP POP POP POP PUSH1 0x40 MLOAD DUP1 PUSH1 0x40 ADD PUSH1 0x40 MSTORE DUP1 PUSH1 0x11 DUP2 MSTORE PUSH1 0x20 ADD PUSH32 0x436F6E6772617473212032782077696E21000000000000000000000000000000 DUP2 MSTORE POP SWAP4 POP POP PUSH2 0x6FF JUMP JUMPDEST PUSH1 0x40 MLOAD PUSH1 0x20 ADD PUSH2 0x5A4 SWAP1 PUSH2 0xCD6 JUMP JUMPDEST PUSH1 0x40 MLOAD PUSH1 0x20 DUP2 DUP4 SUB SUB DUP2 MSTORE SWAP1 PUSH1 0x40 MSTORE DUP1 MLOAD SWAP1 PUSH1 0x20 ADD KECCAK256 DUP7 DUP7 PUSH1 0x40 MLOAD PUSH1 0x20 ADD PUSH2 0x5CD SWAP3 SWAP2 SWAP1 PUSH2 0xCBD JUMP JUMPDEST PUSH1 0x40 MLOAD PUSH1 0x20 DUP2 DUP4 SUB SUB DUP2 MSTORE SWAP1 PUSH1 0x40 MSTORE DUP1 MLOAD SWAP1 PUSH1 0x20 ADD KECCAK256 EQ DUP1 ISZERO PUSH2 0x5F5 JUMPI POP PUSH1 0x32 DUP2 PUSH2 0xFFFF AND LT ISZERO JUMPDEST DUP1 ISZERO PUSH2 0x606 JUMPI POP PUSH1 0x62 DUP2 PUSH2 0xFFFF AND GT ISZERO JUMPDEST ISZERO PUSH2 0x6E2 JUMPI PUSH1 0x0 DUP1 SLOAD SWAP1 PUSH2 0x100 EXP SWAP1 DIV PUSH20 0xFFFFFFFFFFFFFFFFFFFFFFFFFFFFFFFFFFFFFFFF AND PUSH20 0xFFFFFFFFFFFFFFFFFFFFFFFFFFFFFFFFFFFFFFFF AND PUSH4 0x40C10F19 CALLER PUSH1 0x2 DUP11 PUSH2 0x655 SWAP2 SWAP1 PUSH2 0xE43 JUMP JUMPDEST PUSH1 0x40 MLOAD DUP4 PUSH4 0xFFFFFFFF AND PUSH1 0xE0 SHL DUP2 MSTORE PUSH1 0x4 ADD PUSH2 0x672 SWAP3 SWAP2 SWAP1 PUSH2 0xD45 JUMP JUMPDEST PUSH1 0x0 PUSH1 0x40 MLOAD DUP1 DUP4 SUB DUP2 PUSH1 0x0 DUP8 DUP1 EXTCODESIZE ISZERO DUP1 ISZERO PUSH2 0x68C JUMPI PUSH1 0x0 DUP1 REVERT JUMPDEST POP GAS CALL ISZERO DUP1 ISZERO PUSH2 0x6A0 JUMPI RETURNDATASIZE PUSH1 0x0 DUP1 RETURNDATACOPY RETURNDATASIZE PUSH1 0x0 REVERT JUMPDEST POP POP POP POP PUSH1 0x40 MLOAD DUP1 PUSH1 0x40 ADD PUSH1 0x40 MSTORE DUP1 PUSH1 0x11 DUP2 MSTORE PUSH1 0x20 ADD PUSH32 0x436F6E6772617473212032782077696E21000000000000000000000000000000 DUP2 MSTORE POP SWAP4 POP POP PUSH2 0x6FF JUMP JUMPDEST PUSH1 0x40 MLOAD DUP1 PUSH1 0x60 ADD PUSH1 0x40 MSTORE DUP1 PUSH1 0x26 DUP2 MSTORE PUSH1 0x20 ADD PUSH2 0x10B5 PUSH1 0x26 SWAP2 CODECOPY SWAP4 POP POP JUMPDEST POP POP SWAP4 SWAP3 POP POP POP JUMP JUMPDEST PUSH1 0x60 DUP3 CALLER PUSH1 0x0 DUP1 SLOAD SWAP1 PUSH2 0x100 EXP SWAP1 DIV PUSH20 0xFFFFFFFFFFFFFFFFFFFFFFFFFFFFFFFFFFFFFFFF AND PUSH20 0xFFFFFFFFFFFFFFFFFFFFFFFFFFFFFFFFFFFFFFFF AND PUSH4 0xA9059CBB PUSH1 0x1 PUSH1 0x0 SWAP1 SLOAD SWAP1 PUSH2 0x100 EXP SWAP1 DIV PUSH20 0xFFFFFFFFFFFFFFFFFFFFFFFFFFFFFFFFFFFFFFFF AND DUP5 PUSH1 0x40 MLOAD DUP4 PUSH4 0xFFFFFFFF AND PUSH1 0xE0 SHL DUP2 MSTORE PUSH1 0x4 ADD PUSH2 0x789 SWAP3 SWAP2 SWAP1 PUSH2 0xD45 JUMP JUMPDEST PUSH1 0x0 PUSH1 0x40 MLOAD DUP1 DUP4 SUB DUP2 PUSH1 0x0 DUP8 DUP1 EXTCODESIZE ISZERO DUP1 ISZERO PUSH2 0x7A3 JUMPI PUSH1 0x0 DUP1 REVERT JUMPDEST POP GAS CALL ISZERO DUP1 ISZERO PUSH2 0x7B7 JUMPI RETURNDATASIZE PUSH1 0x0 DUP1 RETURNDATACOPY RETURNDATASIZE PUSH1 0x0 REVERT JUMPDEST POP POP POP POP PUSH1 0x0 DUP5 PUSH2 0xFFFF AND LT ISZERO DUP1 ISZERO PUSH2 0x7D5 JUMPI POP PUSH1 0x63 DUP5 PUSH2 0xFFFF AND GT ISZERO JUMPDEST PUSH2 0x7DE JUMPI PUSH1 0x0 DUP1 REVERT JUMPDEST PUSH1 0x0 PUSH2 0x821 CALLER DUP7 PUSH1 0x40 MLOAD DUP1 PUSH1 0x40 ADD PUSH1 0x40 MSTORE DUP1 PUSH1 0x4 DUP2 MSTORE PUSH1 0x20 ADD PUSH32 0x54454D5000000000000000000000000000000000000000000000000000000000 DUP2 MSTORE POP DUP10 PUSH2 0x912 JUMP JUMPDEST SWAP1 POP DUP5 PUSH2 0xFFFF AND DUP2 PUSH2 0xFFFF AND EQ ISZERO PUSH2 0x8ED JUMPI PUSH1 0x0 DUP1 SLOAD SWAP1 PUSH2 0x100 EXP SWAP1 DIV PUSH20 0xFFFFFFFFFFFFFFFFFFFFFFFFFFFFFFFFFFFFFFFF AND PUSH20 0xFFFFFFFFFFFFFFFFFFFFFFFFFFFFFFFFFFFFFFFF AND PUSH4 0x40C10F19 CALLER PUSH1 0x64 DUP10 PUSH2 0x87D SWAP2 SWAP1 PUSH2 0xE43 JUMP JUMPDEST PUSH1 0x40 MLOAD DUP4 PUSH4 0xFFFFFFFF AND PUSH1 0xE0 SHL DUP2 MSTORE PUSH1 0x4 ADD PUSH2 0x89A SWAP3 SWAP2 SWAP1 PUSH2 0xD45 JUMP JUMPDEST PUSH1 0x0 PUSH1 0x40 MLOAD DUP1 DUP4 SUB DUP2 PUSH1 0x0 DUP8 DUP1 EXTCODESIZE ISZERO DUP1 ISZERO PUSH2 0x8B4 JUMPI PUSH1 0x0 DUP1 REVERT JUMPDEST POP GAS CALL ISZERO DUP1 ISZERO PUSH2 0x8C8 JUMPI RETURNDATASIZE PUSH1 0x0 DUP1 RETURNDATACOPY RETURNDATASIZE PUSH1 0x0 REVERT JUMPDEST POP POP POP POP PUSH1 0x40 MLOAD DUP1 PUSH1 0x60 ADD PUSH1 0x40 MSTORE DUP1 PUSH1 0x30 DUP2 MSTORE PUSH1 0x20 ADD PUSH2 0x10DB PUSH1 0x30 SWAP2 CODECOPY SWAP4 POP POP PUSH2 0x90A JUMP JUMPDEST PUSH1 0x40 MLOAD DUP1 PUSH1 0x60 ADD PUSH1 0x40 MSTORE DUP1 PUSH1 0x26 DUP2 MSTORE PUSH1 0x20 ADD PUSH2 0x10B5 PUSH1 0x26 SWAP2 CODECOPY SWAP4 POP POP JUMPDEST POP POP SWAP3 SWAP2 POP POP JUMP JUMPDEST PUSH1 0x0 DUP1 NUMBER BLOCKHASH PUSH1 0x0 SHR SWAP1 POP PUSH1 0x0 DUP7 PUSH1 0x40 MLOAD PUSH1 0x20 ADD PUSH2 0x92F SWAP2 SWAP1 PUSH2 0xD2A JUMP JUMPDEST PUSH1 0x40 MLOAD PUSH1 0x20 DUP2 DUP4 SUB SUB DUP2 MSTORE SWAP1 PUSH1 0x40 MSTORE DUP1 MLOAD SWAP1 PUSH1 0x20 ADD KECCAK256 PUSH1 0x0 SHR SWAP1 POP PUSH1 0x0 DUP7 PUSH1 0x40 MLOAD PUSH1 0x20 ADD PUSH2 0x95D SWAP2 SWAP1 PUSH2 0xD90 JUMP JUMPDEST PUSH1 0x40 MLOAD PUSH1 0x20 DUP2 DUP4 SUB SUB DUP2 MSTORE SWAP1 PUSH1 0x40 MSTORE DUP1 MLOAD SWAP1 PUSH1 0x20 ADD KECCAK256 PUSH1 0x0 SHR SWAP1 POP PUSH1 0x0 DUP7 PUSH1 0x40 MLOAD PUSH1 0x20 ADD PUSH2 0x98B SWAP2 SWAP1 PUSH2 0xD6E JUMP JUMPDEST PUSH1 0x40 MLOAD PUSH1 0x20 DUP2 DUP4 SUB SUB DUP2 MSTORE SWAP1 PUSH1 0x40 MSTORE DUP1 MLOAD SWAP1 PUSH1 0x20 ADD KECCAK256 PUSH1 0x0 SHR SWAP1 POP PUSH1 0x0 DUP7 PUSH1 0x40 MLOAD PUSH1 0x20 ADD PUSH2 0x9B9 SWAP2 SWAP1 PUSH2 0xDAB JUMP JUMPDEST PUSH1 0x40 MLOAD PUSH1 0x20 DUP2 DUP4 SUB SUB DUP2 MSTORE SWAP1 PUSH1 0x40 MSTORE DUP1 MLOAD SWAP1 PUSH1 0x20 ADD KECCAK256 PUSH1 0x0 SHR SWAP1 POP PUSH1 0x64 PUSH2 0x3E8 DUP3 PUSH2 0x9E4 SWAP2 SWAP1 PUSH2 0xF29 JUMP JUMPDEST PUSH2 0x3E8 DUP5 PUSH2 0x9F2 SWAP2 SWAP1 PUSH2 0xF29 JUMP JUMPDEST PUSH2 0x3E8 DUP7 PUSH2 0xA00 SWAP2 SWAP1 PUSH2 0xF29 JUMP JUMPDEST PUSH2 0x3E8 DUP9 PUSH2 0xA0E SWAP2 SWAP1 PUSH2 0xF29 JUMP JUMPDEST PUSH2 0x3E8 DUP11 PUSH2 0xA1C SWAP2 SWAP1 PUSH2 0xF29 JUMP JUMPDEST PUSH2 0xA26 SWAP2 SWAP1 PUSH2 0xDED JUMP JUMPDEST PUSH2 0xA30 SWAP2 SWAP1 PUSH2 0xDED JUMP JUMPDEST PUSH2 0xA3A SWAP2 SWAP1 PUSH2 0xDED JUMP JUMPDEST PUSH2 0xA44 SWAP2 SWAP1 PUSH2 0xDED JUMP JUMPDEST PUSH1 0x40 MLOAD PUSH1 0x20 ADD PUSH2 0xA54 SWAP2 SWAP1 PUSH2 0xDAB JUMP JUMPDEST PUSH1 0x40 MLOAD PUSH1 0x20 DUP2 DUP4 SUB SUB DUP2 MSTORE SWAP1 PUSH1 0x40 MSTORE DUP1 MLOAD SWAP1 PUSH1 0x20 ADD KECCAK256 PUSH1 0x0 SHR PUSH2 0xA77 SWAP2 SWAP1 PUSH2 0xF29 JUMP JUMPDEST SWAP6 POP POP POP POP POP POP SWAP5 SWAP4 POP POP POP POP JUMP JUMPDEST PUSH1 0x0 DUP1 DUP4 PUSH1 0x1F DUP5 ADD SLT PUSH2 0xA9C JUMPI PUSH2 0xA9B PUSH2 0xFBD JUMP JUMPDEST JUMPDEST DUP3 CALLDATALOAD SWAP1 POP PUSH8 0xFFFFFFFFFFFFFFFF DUP2 GT ISZERO PUSH2 0xAB9 JUMPI PUSH2 0xAB8 PUSH2 0xFB8 JUMP JUMPDEST JUMPDEST PUSH1 0x20 DUP4 ADD SWAP2 POP DUP4 PUSH1 0x1 DUP3 MUL DUP4 ADD GT ISZERO PUSH2 0xAD5 JUMPI PUSH2 0xAD4 PUSH2 0xFC2 JUMP JUMPDEST JUMPDEST SWAP3 POP SWAP3 SWAP1 POP JUMP JUMPDEST PUSH1 0x0 DUP2 CALLDATALOAD SWAP1 POP PUSH2 0xAEB DUP2 PUSH2 0x1086 JUMP JUMPDEST SWAP3 SWAP2 POP POP JUMP JUMPDEST PUSH1 0x0 DUP2 CALLDATALOAD SWAP1 POP PUSH2 0xB00 DUP2 PUSH2 0x109D JUMP JUMPDEST SWAP3 SWAP2 POP POP JUMP JUMPDEST PUSH1 0x0 DUP1 PUSH1 0x0 PUSH1 0x40 DUP5 DUP7 SUB SLT ISZERO PUSH2 0xB1F JUMPI PUSH2 0xB1E PUSH2 0xFCC JUMP JUMPDEST JUMPDEST PUSH1 0x0 PUSH2 0xB2D DUP7 DUP3 DUP8 ADD PUSH2 0xAF1 JUMP JUMPDEST SWAP4 POP POP PUSH1 0x20 DUP5 ADD CALLDATALOAD PUSH8 0xFFFFFFFFFFFFFFFF DUP2 GT ISZERO PUSH2 0xB4E JUMPI PUSH2 0xB4D PUSH2 0xFC7 JUMP JUMPDEST JUMPDEST PUSH2 0xB5A DUP7 DUP3 DUP8 ADD PUSH2 0xA86 JUMP JUMPDEST SWAP3 POP SWAP3 POP POP SWAP3 POP SWAP3 POP SWAP3 JUMP JUMPDEST PUSH1 0x0 DUP1 PUSH1 0x40 DUP4 DUP6 SUB SLT ISZERO PUSH2 0xB7D JUMPI PUSH2 0xB7C PUSH2 0xFCC JUMP JUMPDEST JUMPDEST PUSH1 0x0 PUSH2 0xB8B DUP6 DUP3 DUP7 ADD PUSH2 0xAF1 JUMP JUMPDEST SWAP3 POP POP PUSH1 0x20 PUSH2 0xB9C DUP6 DUP3 DUP7 ADD PUSH2 0xADC JUMP JUMPDEST SWAP2 POP POP SWAP3 POP SWAP3 SWAP1 POP JUMP JUMPDEST PUSH2 0xBAF DUP2 PUSH2 0xE9D JUMP JUMPDEST DUP3 MSTORE POP POP JUMP JUMPDEST PUSH1 0x0 PUSH2 0xBC1 DUP4 DUP6 PUSH2 0xDE2 JUMP JUMPDEST SWAP4 POP PUSH2 0xBCE DUP4 DUP6 DUP5 PUSH2 0xEE7 JUMP JUMPDEST DUP3 DUP5 ADD SWAP1 POP SWAP4 SWAP3 POP POP POP JUMP JUMPDEST PUSH1 0x0 PUSH2 0xBE5 DUP3 PUSH2 0xDC6 JUMP JUMPDEST PUSH2 0xBEF DUP2 DUP6 PUSH2 0xDD1 JUMP JUMPDEST SWAP4 POP PUSH2 0xBFF DUP2 DUP6 PUSH1 0x20 DUP7 ADD PUSH2 0xEF6 JUMP JUMPDEST PUSH2 0xC08 DUP2 PUSH2 0xFD1 JUMP JUMPDEST DUP5 ADD SWAP2 POP POP SWAP3 SWAP2 POP POP JUMP JUMPDEST PUSH1 0x0 PUSH2 0xC20 PUSH1 0x3 DUP4 PUSH2 0xDE2 JUMP JUMPDEST SWAP2 POP PUSH2 0xC2B DUP3 PUSH2 0xFE2 JUMP JUMPDEST PUSH1 0x3 DUP3 ADD SWAP1 POP SWAP2 SWAP1 POP JUMP JUMPDEST PUSH1 0x0 PUSH2 0xC43 PUSH1 0x5 DUP4 PUSH2 0xDE2 JUMP JUMPDEST SWAP2 POP PUSH2 0xC4E DUP3 PUSH2 0x100B JUMP JUMPDEST PUSH1 0x5 DUP3 ADD SWAP1 POP SWAP2 SWAP1 POP JUMP JUMPDEST PUSH1 0x0 PUSH2 0xC66 PUSH1 0x5 DUP4 PUSH2 0xDE2 JUMP JUMPDEST SWAP2 POP PUSH2 0xC71 DUP3 PUSH2 0x1034 JUMP JUMPDEST PUSH1 0x5 DUP3 ADD SWAP1 POP SWAP2 SWAP1 POP JUMP JUMPDEST PUSH1 0x0 PUSH2 0xC89 PUSH1 0x4 DUP4 PUSH2 0xDE2 JUMP JUMPDEST SWAP2 POP PUSH2 0xC94 DUP3 PUSH2 0x105D JUMP JUMPDEST PUSH1 0x4 DUP3 ADD SWAP1 POP SWAP2 SWAP1 POP JUMP JUMPDEST PUSH2 0xCA8 DUP2 PUSH2 0xEAF JUMP JUMPDEST DUP3 MSTORE POP POP JUMP JUMPDEST PUSH2 0xCB7 DUP2 PUSH2 0xEDD JUMP JUMPDEST DUP3 MSTORE POP POP JUMP JUMPDEST PUSH1 0x0 PUSH2 0xCCA DUP3 DUP5 DUP7 PUSH2 0xBB5 JUMP JUMPDEST SWAP2 POP DUP2 SWAP1 POP SWAP4 SWAP3 POP POP POP JUMP JUMPDEST PUSH1 0x0 PUSH2 0xCE1 DUP3 PUSH2 0xC13 JUMP JUMPDEST SWAP2 POP DUP2 SWAP1 POP SWAP2 SWAP1 POP JUMP JUMPDEST PUSH1 0x0 PUSH2 0xCF6 DUP3 PUSH2 0xC36 JUMP JUMPDEST SWAP2 POP DUP2 SWAP1 POP SWAP2 SWAP1 POP JUMP JUMPDEST PUSH1 0x0 PUSH2 0xD0B DUP3 PUSH2 0xC59 JUMP JUMPDEST SWAP2 POP DUP2 SWAP1 POP SWAP2 SWAP1 POP JUMP JUMPDEST PUSH1 0x0 PUSH2 0xD20 DUP3 PUSH2 0xC7C JUMP JUMPDEST SWAP2 POP DUP2 SWAP1 POP SWAP2 SWAP1 POP JUMP JUMPDEST PUSH1 0x0 PUSH1 0x20 DUP3 ADD SWAP1 POP PUSH2 0xD3F PUSH1 0x0 DUP4 ADD DUP5 PUSH2 0xBA6 JUMP JUMPDEST SWAP3 SWAP2 POP POP JUMP JUMPDEST PUSH1 0x0 PUSH1 0x40 DUP3 ADD SWAP1 POP PUSH2 0xD5A PUSH1 0x0 DUP4 ADD DUP6 PUSH2 0xBA6 JUMP JUMPDEST PUSH2 0xD67 PUSH1 0x20 DUP4 ADD DUP5 PUSH2 0xCAE JUMP JUMPDEST SWAP4 SWAP3 POP POP POP JUMP JUMPDEST PUSH1 0x0 PUSH1 0x20 DUP3 ADD SWAP1 POP DUP2 DUP2 SUB PUSH1 0x0 DUP4 ADD MSTORE PUSH2 0xD88 DUP2 DUP5 PUSH2 0xBDA JUMP JUMPDEST SWAP1 POP SWAP3 SWAP2 POP POP JUMP JUMPDEST PUSH1 0x0 PUSH1 0x20 DUP3 ADD SWAP1 POP PUSH2 0xDA5 PUSH1 0x0 DUP4 ADD DUP5 PUSH2 0xC9F JUMP JUMPDEST SWAP3 SWAP2 POP POP JUMP JUMPDEST PUSH1 0x0 PUSH1 0x20 DUP3 ADD SWAP1 POP PUSH2 0xDC0 PUSH1 0x0 DUP4 ADD DUP5 PUSH2 0xCAE JUMP JUMPDEST SWAP3 SWAP2 POP POP JUMP JUMPDEST PUSH1 0x0 DUP2 MLOAD SWAP1 POP SWAP2 SWAP1 POP JUMP JUMPDEST PUSH1 0x0 DUP3 DUP3 MSTORE PUSH1 0x20 DUP3 ADD SWAP1 POP SWAP3 SWAP2 POP POP JUMP JUMPDEST PUSH1 0x0 DUP2 SWAP1 POP SWAP3 SWAP2 POP POP JUMP JUMPDEST PUSH1 0x0 PUSH2 0xDF8 DUP3 PUSH2 0xEDD JUMP JUMPDEST SWAP2 POP PUSH2 0xE03 DUP4 PUSH2 0xEDD JUMP JUMPDEST SWAP3 POP DUP3 PUSH32 0xFFFFFFFFFFFFFFFFFFFFFFFFFFFFFFFFFFFFFFFFFFFFFFFFFFFFFFFFFFFFFFFF SUB DUP3 GT ISZERO PUSH2 0xE38 JUMPI PUSH2 0xE37 PUSH2 0xF5A JUMP JUMPDEST JUMPDEST DUP3 DUP3 ADD SWAP1 POP SWAP3 SWAP2 POP POP JUMP JUMPDEST PUSH1 0x0 PUSH2 0xE4E DUP3 PUSH2 0xEDD JUMP JUMPDEST SWAP2 POP PUSH2 0xE59 DUP4 PUSH2 0xEDD JUMP JUMPDEST SWAP3 POP DUP2 PUSH32 0xFFFFFFFFFFFFFFFFFFFFFFFFFFFFFFFFFFFFFFFFFFFFFFFFFFFFFFFFFFFFFFFF DIV DUP4 GT DUP3 ISZERO ISZERO AND ISZERO PUSH2 0xE92 JUMPI PUSH2 0xE91 PUSH2 0xF5A JUMP JUMPDEST JUMPDEST DUP3 DUP3 MUL SWAP1 POP SWAP3 SWAP2 POP POP JUMP JUMPDEST PUSH1 0x0 PUSH2 0xEA8 DUP3 PUSH2 0xEBD JUMP JUMPDEST SWAP1 POP SWAP2 SWAP1 POP JUMP JUMPDEST PUSH1 0x0 PUSH2 0xFFFF DUP3 AND SWAP1 POP SWAP2 SWAP1 POP JUMP JUMPDEST PUSH1 0x0 PUSH20 0xFFFFFFFFFFFFFFFFFFFFFFFFFFFFFFFFFFFFFFFF DUP3 AND SWAP1 POP SWAP2 SWAP1 POP JUMP JUMPDEST PUSH1 0x0 DUP2 SWAP1 POP SWAP2 SWAP1 POP JUMP JUMPDEST DUP3 DUP2 DUP4 CALLDATACOPY PUSH1 0x0 DUP4 DUP4 ADD MSTORE POP POP POP JUMP JUMPDEST PUSH1 0x0 JUMPDEST DUP4 DUP2 LT ISZERO PUSH2 0xF14 JUMPI DUP1 DUP3 ADD MLOAD DUP2 DUP5 ADD MSTORE PUSH1 0x20 DUP2 ADD SWAP1 POP PUSH2 0xEF9 JUMP JUMPDEST DUP4 DUP2 GT ISZERO PUSH2 0xF23 JUMPI PUSH1 0x0 DUP5 DUP5 ADD MSTORE JUMPDEST POP POP POP POP JUMP JUMPDEST PUSH1 0x0 PUSH2 0xF34 DUP3 PUSH2 0xEDD JUMP JUMPDEST SWAP2 POP PUSH2 0xF3F DUP4 PUSH2 0xEDD JUMP JUMPDEST SWAP3 POP DUP3 PUSH2 0xF4F JUMPI PUSH2 0xF4E PUSH2 0xF89 JUMP JUMPDEST JUMPDEST DUP3 DUP3 MOD SWAP1 POP SWAP3 SWAP2 POP POP JUMP JUMPDEST PUSH32 0x4E487B7100000000000000000000000000000000000000000000000000000000 PUSH1 0x0 MSTORE PUSH1 0x11 PUSH1 0x4 MSTORE PUSH1 0x24 PUSH1 0x0 REVERT JUMPDEST PUSH32 0x4E487B7100000000000000000000000000000000000000000000000000000000 PUSH1 0x0 MSTORE PUSH1 0x12 PUSH1 0x4 MSTORE PUSH1 0x24 PUSH1 0x0 REVERT JUMPDEST PUSH1 0x0 DUP1 REVERT JUMPDEST PUSH1 0x0 DUP1 REVERT JUMPDEST PUSH1 0x0 DUP1 REVERT JUMPDEST PUSH1 0x0 DUP1 REVERT JUMPDEST PUSH1 0x0 DUP1 REVERT JUMPDEST PUSH1 0x0 PUSH1 0x1F NOT PUSH1 0x1F DUP4 ADD AND SWAP1 POP SWAP2 SWAP1 POP JUMP JUMPDEST PUSH32 0x7265640000000000000000000000000000000000000000000000000000000000 PUSH1 0x0 DUP3 ADD MSTORE POP JUMP JUMPDEST PUSH32 0x626C61636B000000000000000000000000000000000000000000000000000000 PUSH1 0x0 DUP3 ADD MSTORE POP JUMP JUMPDEST PUSH32 0x677265656E000000000000000000000000000000000000000000000000000000 PUSH1 0x0 DUP3 ADD MSTORE POP JUMP JUMPDEST PUSH32 0x626C756500000000000000000000000000000000000000000000000000000000 PUSH1 0x0 DUP3 ADD MSTORE POP JUMP JUMPDEST PUSH2 0x108F DUP2 PUSH2 0xEAF JUMP JUMPDEST DUP2 EQ PUSH2 0x109A JUMPI PUSH1 0x0 DUP1 REVERT JUMPDEST POP JUMP JUMPDEST PUSH2 0x10A6 DUP2 PUSH2 0xEDD JUMP JUMPDEST DUP2 EQ PUSH2 0x10B1 JUMPI PUSH1 0x0 DUP1 REVERT JUMPDEST POP JUMP INVALID MSIZE PUSH16 0x752068617665206C6F73742E20556E66 PUSH16 0x7274756E6174652E2054727920616761 PUSH10 0x6E21434F4E4752415453 0x21 KECCAK256 MSIZE 0x4F SSTORE KECCAK256 BASEFEE COINBASE JUMP GASLIMIT KECCAK256 0x4A SSTORE MSTORE8 SLOAD KECCAK256 JUMPI 0x4F 0x4E KECCAK256 COINBASE KECCAK256 MSTORE8 SSTORE POP GASLIMIT MSTORE KECCAK256 POP MSTORE 0x49 GAS GASLIMIT 0x21 KECCAK256 PUSH25 0x31303021A2646970667358221220A10C5637B4FDF40855DDB2 0xB1 PUSH27 0xAA847B9375FDCB1E4F0AEE0314990C8028EE3364736F6C63430008 SMOD STOP CALLER "
		},
		"gasEstimates": {
			"creation": {
				"codeDepositCost": "883200",
				"executionCost": "infinite",
				"totalCost": "infinite"
			},
			"external": {
				"Bet_and_play_on_color(uint256,string)": "infinite",
				"Bet_and_play_on_number(uint256,uint16)": "infinite"
			},
			"internal": {
				"rnd(address,uint16,string memory,uint256)": "infinite"
			}
		},
		"methodIdentifiers": {
			"Bet_and_play_on_color(uint256,string)": "1a670a74",
			"Bet_and_play_on_number(uint256,uint16)": "f529f7b7"
		}
	},
	"abi": [
		{
			"inputs": [
				{
					"internalType": "address",
					"name": "Token_owner",
					"type": "address"
				}
			],
			"stateMutability": "nonpayable",
			"type": "constructor"
		},
		{
			"inputs": [
				{
					"internalType": "uint256",
					"name": "bet",
					"type": "uint256"
				},
				{
					"internalType": "string",
					"name": "color",
					"type": "string"
				}
			],
			"name": "Bet_and_play_on_color",
			"outputs": [
				{
					"internalType": "string",
					"name": "",
					"type": "string"
				}
			],
			"stateMutability": "nonpayable",
			"type": "function"
		},
		{
			"inputs": [
				{
					"internalType": "uint256",
					"name": "bet",
					"type": "uint256"
				},
				{
					"internalType": "uint16",
					"name": "number",
					"type": "uint16"
				}
			],
			"name": "Bet_and_play_on_number",
			"outputs": [
				{
					"internalType": "string",
					"name": "",
					"type": "string"
				}
			],
			"stateMutability": "nonpayable",
			"type": "function"
		}
	]
}