{
	"data": {
		"bytecode": {
			"linkReferences": {},
			"object": "6080604052735b38da6a701c568545dcfcb03fcb875f56beddc4600160006101000a81548173ffffffffffffffffffffffffffffffffffffffff021916908373ffffffffffffffffffffffffffffffffffffffff16021790555034801561006557600080fd5b50600160009054906101000a900473ffffffffffffffffffffffffffffffffffffffff166000806101000a81548173ffffffffffffffffffffffffffffffffffffffff021916908373ffffffffffffffffffffffffffffffffffffffff1602179055506111fd806100d76000396000f3fe6080604052600436106100345760003560e01c80631a670a7414610039578063af674c5714610076578063f529f7b714610080575b600080fd5b34801561004557600080fd5b50610060600480360381019061005b9190610bc3565b6100bd565b60405161006d9190610e2b565b60405180910390f35b61007e61072a565b005b34801561008c57600080fd5b506100a760048036038101906100a29190610c23565b6107c5565b6040516100b49190610e2b565b60405180910390f35b6060833360008054906101000a900473ffffffffffffffffffffffffffffffffffffffff1673ffffffffffffffffffffffffffffffffffffffff1663a9059cbb600160009054906101000a900473ffffffffffffffffffffffffffffffffffffffff16846040518363ffffffff1660e01b815260040161013e929190610e02565b600060405180830381600087803b15801561015857600080fd5b505af115801561016c573d6000803e3d6000fd5b5050505060405160200161017f90610d93565b6040516020818303038152906040528051906020012085856040516020016101a8929190610d7a565b60405160208183030381529060405280519060200120148061021557506040516020016101d490610dd2565b6040516020818303038152906040528051906020012085856040516020016101fd929190610d7a565b60405160208183030381529060405280519060200120145b8061026b575060405160200161022a90610dbd565b604051602081830303815290604052805190602001208585604051602001610253929190610d7a565b60405160208183030381529060405280519060200120145b61027457600080fd5b60006102c733600188888080601f016020809104026020016040519081016040528093929190818152602001838380828437600081840152601f19601f820116905080830192505050505050508a6109cf565b905060008161ffff1614801561032857506040516020016102e790610dbd565b604051602081830303815290604052805190602001208686604051602001610310929190610d7a565b60405160208183030381529060405280519060200120145b8061038e575060638161ffff1614801561038d575060405160200161034c90610dbd565b604051602081830303815290604052805190602001208686604051602001610375929190610d7a565b60405160208183030381529060405280519060200120145b5b1561046a5760008054906101000a900473ffffffffffffffffffffffffffffffffffffffff1673ffffffffffffffffffffffffffffffffffffffff166340c10f1933600f8a6103dd9190610f00565b6040518363ffffffff1660e01b81526004016103fa929190610e02565b600060405180830381600087803b15801561041457600080fd5b505af1158015610428573d6000803e3d6000fd5b505050506040518060400160405280601281526020017f434f4e475241545321203135782057494e210000000000000000000000000000815250935050610721565b60405160200161047990610da8565b6040516020818303038152906040528051906020012086866040516020016104a2929190610d7a565b604051602081830303815290604052805190602001201480156104ca575060018161ffff1610155b80156104db575060318161ffff1611155b156105b75760008054906101000a900473ffffffffffffffffffffffffffffffffffffffff1673ffffffffffffffffffffffffffffffffffffffff166340c10f193360028a61052a9190610f00565b6040518363ffffffff1660e01b8152600401610547929190610e02565b600060405180830381600087803b15801561056157600080fd5b505af1158015610575573d6000803e3d6000fd5b505050506040518060400160405280601181526020017f436f6e6772617473212032782077696e21000000000000000000000000000000815250935050610721565b6040516020016105c690610d93565b6040516020818303038152906040528051906020012086866040516020016105ef929190610d7a565b60405160208183030381529060405280519060200120148015610617575060328161ffff1610155b8015610628575060628161ffff1611155b156107045760008054906101000a900473ffffffffffffffffffffffffffffffffffffffff1673ffffffffffffffffffffffffffffffffffffffff166340c10f193360028a6106779190610f00565b6040518363ffffffff1660e01b8152600401610694929190610e02565b600060405180830381600087803b1580156106ae57600080fd5b505af11580156106c2573d6000803e3d6000fd5b505050506040518060400160405280601181526020017f436f6e6772617473212032782077696e21000000000000000000000000000000815250935050610721565b604051806060016040528060268152602001611172602691399350505b50509392505050565b60008054906101000a900473ffffffffffffffffffffffffffffffffffffffff1673ffffffffffffffffffffffffffffffffffffffff166340c10f19336005346107749190610f00565b6040518363ffffffff1660e01b8152600401610791929190610e02565b600060405180830381600087803b1580156107ab57600080fd5b505af11580156107bf573d6000803e3d6000fd5b50505050565b6060823360008054906101000a900473ffffffffffffffffffffffffffffffffffffffff1673ffffffffffffffffffffffffffffffffffffffff1663a9059cbb600160009054906101000a900473ffffffffffffffffffffffffffffffffffffffff16846040518363ffffffff1660e01b8152600401610846929190610e02565b600060405180830381600087803b15801561086057600080fd5b505af1158015610874573d6000803e3d6000fd5b5050505060008461ffff1610158015610892575060638461ffff1611155b61089b57600080fd5b60006108de33866040518060400160405280600481526020017f54454d5000000000000000000000000000000000000000000000000000000000815250896109cf565b90508461ffff168161ffff1614156109aa5760008054906101000a900473ffffffffffffffffffffffffffffffffffffffff1673ffffffffffffffffffffffffffffffffffffffff166340c10f193360648961093a9190610f00565b6040518363ffffffff1660e01b8152600401610957929190610e02565b600060405180830381600087803b15801561097157600080fd5b505af1158015610985573d6000803e3d6000fd5b50505050604051806060016040528060308152602001611198603091399350506109c7565b604051806060016040528060268152602001611172602691399350505b505092915050565b600080434060001c90506000866040516020016109ec9190610de7565b6040516020818303038152906040528051906020012060001c9050600086604051602001610a1a9190610e4d565b6040516020818303038152906040528051906020012060001c9050600086604051602001610a489190610e2b565b6040516020818303038152906040528051906020012060001c9050600086604051602001610a769190610e68565b6040516020818303038152906040528051906020012060001c905060646103e882610aa19190610fe6565b6103e884610aaf9190610fe6565b6103e886610abd9190610fe6565b6103e888610acb9190610fe6565b6103e88a610ad99190610fe6565b610ae39190610eaa565b610aed9190610eaa565b610af79190610eaa565b610b019190610eaa565b604051602001610b119190610e68565b6040516020818303038152906040528051906020012060001c610b349190610fe6565b95505050505050949350505050565b60008083601f840112610b5957610b5861107a565b5b8235905067ffffffffffffffff811115610b7657610b75611075565b5b602083019150836001820283011115610b9257610b9161107f565b5b9250929050565b600081359050610ba881611143565b92915050565b600081359050610bbd8161115a565b92915050565b600080600060408486031215610bdc57610bdb611089565b5b6000610bea86828701610bae565b935050602084013567ffffffffffffffff811115610c0b57610c0a611084565b5b610c1786828701610b43565b92509250509250925092565b60008060408385031215610c3a57610c39611089565b5b6000610c4885828601610bae565b9250506020610c5985828601610b99565b9150509250929050565b610c6c81610f5a565b82525050565b6000610c7e8385610e9f565b9350610c8b838584610fa4565b82840190509392505050565b6000610ca282610e83565b610cac8185610e8e565b9350610cbc818560208601610fb3565b610cc58161108e565b840191505092915050565b6000610cdd600383610e9f565b9150610ce88261109f565b600382019050919050565b6000610d00600583610e9f565b9150610d0b826110c8565b600582019050919050565b6000610d23600583610e9f565b9150610d2e826110f1565b600582019050919050565b6000610d46600483610e9f565b9150610d518261111a565b600482019050919050565b610d6581610f6c565b82525050565b610d7481610f9a565b82525050565b6000610d87828486610c72565b91508190509392505050565b6000610d9e82610cd0565b9150819050919050565b6000610db382610cf3565b9150819050919050565b6000610dc882610d16565b9150819050919050565b6000610ddd82610d39565b9150819050919050565b6000602082019050610dfc6000830184610c63565b92915050565b6000604082019050610e176000830185610c63565b610e246020830184610d6b565b9392505050565b60006020820190508181036000830152610e458184610c97565b905092915050565b6000602082019050610e626000830184610d5c565b92915050565b6000602082019050610e7d6000830184610d6b565b92915050565b600081519050919050565b600082825260208201905092915050565b600081905092915050565b6000610eb582610f9a565b9150610ec083610f9a565b9250827fffffffffffffffffffffffffffffffffffffffffffffffffffffffffffffffff03821115610ef557610ef4611017565b5b828201905092915050565b6000610f0b82610f9a565b9150610f1683610f9a565b9250817fffffffffffffffffffffffffffffffffffffffffffffffffffffffffffffffff0483118215151615610f4f57610f4e611017565b5b828202905092915050565b6000610f6582610f7a565b9050919050565b600061ffff82169050919050565b600073ffffffffffffffffffffffffffffffffffffffff82169050919050565b6000819050919050565b82818337600083830152505050565b60005b83811015610fd1578082015181840152602081019050610fb6565b83811115610fe0576000848401525b50505050565b6000610ff182610f9a565b9150610ffc83610f9a565b92508261100c5761100b611046565b5b828206905092915050565b7f4e487b7100000000000000000000000000000000000000000000000000000000600052601160045260246000fd5b7f4e487b7100000000000000000000000000000000000000000000000000000000600052601260045260246000fd5b600080fd5b600080fd5b600080fd5b600080fd5b600080fd5b6000601f19601f8301169050919050565b7f7265640000000000000000000000000000000000000000000000000000000000600082015250565b7f626c61636b000000000000000000000000000000000000000000000000000000600082015250565b7f677265656e000000000000000000000000000000000000000000000000000000600082015250565b7f626c756500000000000000000000000000000000000000000000000000000000600082015250565b61114c81610f6c565b811461115757600080fd5b50565b61116381610f9a565b811461116e57600080fd5b5056fe596f752068617665206c6f73742e20556e666f7274756e6174652e2054727920616761696e21434f4e47524154532120594f552048415645204a55535420574f4e2041205355504552205052495a4521207831303021a264697066735822122056324a384ef5efb582fe0a0310963b0aa2e89a8cf8291f4e05ffd64a22141bbd64736f6c63430008070033",
			"opcodes": "PUSH1 0x80 PUSH1 0x40 MSTORE PUSH20 0x5B38DA6A701C568545DCFCB03FCB875F56BEDDC4 PUSH1 0x1 PUSH1 0x0 PUSH2 0x100 EXP DUP2 SLOAD DUP2 PUSH20 0xFFFFFFFFFFFFFFFFFFFFFFFFFFFFFFFFFFFFFFFF MUL NOT AND SWAP1 DUP4 PUSH20 0xFFFFFFFFFFFFFFFFFFFFFFFFFFFFFFFFFFFFFFFF AND MUL OR SWAP1 SSTORE POP CALLVALUE DUP1 ISZERO PUSH2 0x65 JUMPI PUSH1 0x0 DUP1 REVERT JUMPDEST POP PUSH1 0x1 PUSH1 0x0 SWAP1 SLOAD SWAP1 PUSH2 0x100 EXP SWAP1 DIV PUSH20 0xFFFFFFFFFFFFFFFFFFFFFFFFFFFFFFFFFFFFFFFF AND PUSH1 0x0 DUP1 PUSH2 0x100 EXP DUP2 SLOAD DUP2 PUSH20 0xFFFFFFFFFFFFFFFFFFFFFFFFFFFFFFFFFFFFFFFF MUL NOT AND SWAP1 DUP4 PUSH20 0xFFFFFFFFFFFFFFFFFFFFFFFFFFFFFFFFFFFFFFFF AND MUL OR SWAP1 SSTORE POP PUSH2 0x11FD DUP1 PUSH2 0xD7 PUSH1 0x0 CODECOPY PUSH1 0x0 RETURN INVALID PUSH1 0x80 PUSH1 0x40 MSTORE PUSH1 0x4 CALLDATASIZE LT PUSH2 0x34 JUMPI PUSH1 0x0 CALLDATALOAD PUSH1 0xE0 SHR DUP1 PUSH4 0x1A670A74 EQ PUSH2 0x39 JUMPI DUP1 PUSH4 0xAF674C57 EQ PUSH2 0x76 JUMPI DUP1 PUSH4 0xF529F7B7 EQ PUSH2 0x80 JUMPI JUMPDEST PUSH1 0x0 DUP1 REVERT JUMPDEST CALLVALUE DUP1 ISZERO PUSH2 0x45 JUMPI PUSH1 0x0 DUP1 REVERT JUMPDEST POP PUSH2 0x60 PUSH1 0x4 DUP1 CALLDATASIZE SUB DUP2 ADD SWAP1 PUSH2 0x5B SWAP2 SWAP1 PUSH2 0xBC3 JUMP JUMPDEST PUSH2 0xBD JUMP JUMPDEST PUSH1 0x40 MLOAD PUSH2 0x6D SWAP2 SWAP1 PUSH2 0xE2B JUMP JUMPDEST PUSH1 0x40 MLOAD DUP1 SWAP2 SUB SWAP1 RETURN JUMPDEST PUSH2 0x7E PUSH2 0x72A JUMP JUMPDEST STOP JUMPDEST CALLVALUE DUP1 ISZERO PUSH2 0x8C JUMPI PUSH1 0x0 DUP1 REVERT JUMPDEST POP PUSH2 0xA7 PUSH1 0x4 DUP1 CALLDATASIZE SUB DUP2 ADD SWAP1 PUSH2 0xA2 SWAP2 SWAP1 PUSH2 0xC23 JUMP JUMPDEST PUSH2 0x7C5 JUMP JUMPDEST PUSH1 0x40 MLOAD PUSH2 0xB4 SWAP2 SWAP1 PUSH2 0xE2B JUMP JUMPDEST PUSH1 0x40 MLOAD DUP1 SWAP2 SUB SWAP1 RETURN JUMPDEST PUSH1 0x60 DUP4 CALLER PUSH1 0x0 DUP1 SLOAD SWAP1 PUSH2 0x100 EXP SWAP1 DIV PUSH20 0xFFFFFFFFFFFFFFFFFFFFFFFFFFFFFFFFFFFFFFFF AND PUSH20 0xFFFFFFFFFFFFFFFFFFFFFFFFFFFFFFFFFFFFFFFF AND PUSH4 0xA9059CBB PUSH1 0x1 PUSH1 0x0 SWAP1 SLOAD SWAP1 PUSH2 0x100 EXP SWAP1 DIV PUSH20 0xFFFFFFFFFFFFFFFFFFFFFFFFFFFFFFFFFFFFFFFF AND DUP5 PUSH1 0x40 MLOAD DUP4 PUSH4 0xFFFFFFFF AND PUSH1 0xE0 SHL DUP2 MSTORE PUSH1 0x4 ADD PUSH2 0x13E SWAP3 SWAP2 SWAP1 PUSH2 0xE02 JUMP JUMPDEST PUSH1 0x0 PUSH1 0x40 MLOAD DUP1 DUP4 SUB DUP2 PUSH1 0x0 DUP8 DUP1 EXTCODESIZE ISZERO DUP1 ISZERO PUSH2 0x158 JUMPI PUSH1 0x0 DUP1 REVERT JUMPDEST POP GAS CALL ISZERO DUP1 ISZERO PUSH2 0x16C JUMPI RETURNDATASIZE PUSH1 0x0 DUP1 RETURNDATACOPY RETURNDATASIZE PUSH1 0x0 REVERT JUMPDEST POP POP POP POP PUSH1 0x40 MLOAD PUSH1 0x20 ADD PUSH2 0x17F SWAP1 PUSH2 0xD93 JUMP JUMPDEST PUSH1 0x40 MLOAD PUSH1 0x20 DUP2 DUP4 SUB SUB DUP2 MSTORE SWAP1 PUSH1 0x40 MSTORE DUP1 MLOAD SWAP1 PUSH1 0x20 ADD KECCAK256 DUP6 DUP6 PUSH1 0x40 MLOAD PUSH1 0x20 ADD PUSH2 0x1A8 SWAP3 SWAP2 SWAP1 PUSH2 0xD7A JUMP JUMPDEST PUSH1 0x40 MLOAD PUSH1 0x20 DUP2 DUP4 SUB SUB DUP2 MSTORE SWAP1 PUSH1 0x40 MSTORE DUP1 MLOAD SWAP1 PUSH1 0x20 ADD KECCAK256 EQ DUP1 PUSH2 0x215 JUMPI POP PUSH1 0x40 MLOAD PUSH1 0x20 ADD PUSH2 0x1D4 SWAP1 PUSH2 0xDD2 JUMP JUMPDEST PUSH1 0x40 MLOAD PUSH1 0x20 DUP2 DUP4 SUB SUB DUP2 MSTORE SWAP1 PUSH1 0x40 MSTORE DUP1 MLOAD SWAP1 PUSH1 0x20 ADD KECCAK256 DUP6 DUP6 PUSH1 0x40 MLOAD PUSH1 0x20 ADD PUSH2 0x1FD SWAP3 SWAP2 SWAP1 PUSH2 0xD7A JUMP JUMPDEST PUSH1 0x40 MLOAD PUSH1 0x20 DUP2 DUP4 SUB SUB DUP2 MSTORE SWAP1 PUSH1 0x40 MSTORE DUP1 MLOAD SWAP1 PUSH1 0x20 ADD KECCAK256 EQ JUMPDEST DUP1 PUSH2 0x26B JUMPI POP PUSH1 0x40 MLOAD PUSH1 0x20 ADD PUSH2 0x22A SWAP1 PUSH2 0xDBD JUMP JUMPDEST PUSH1 0x40 MLOAD PUSH1 0x20 DUP2 DUP4 SUB SUB DUP2 MSTORE SWAP1 PUSH1 0x40 MSTORE DUP1 MLOAD SWAP1 PUSH1 0x20 ADD KECCAK256 DUP6 DUP6 PUSH1 0x40 MLOAD PUSH1 0x20 ADD PUSH2 0x253 SWAP3 SWAP2 SWAP1 PUSH2 0xD7A JUMP JUMPDEST PUSH1 0x40 MLOAD PUSH1 0x20 DUP2 DUP4 SUB SUB DUP2 MSTORE SWAP1 PUSH1 0x40 MSTORE DUP1 MLOAD SWAP1 PUSH1 0x20 ADD KECCAK256 EQ JUMPDEST PUSH2 0x274 JUMPI PUSH1 0x0 DUP1 REVERT JUMPDEST PUSH1 0x0 PUSH2 0x2C7 CALLER PUSH1 0x1 DUP9 DUP9 DUP1 DUP1 PUSH1 0x1F ADD PUSH1 0x20 DUP1 SWAP2 DIV MUL PUSH1 0x20 ADD PUSH1 0x40 MLOAD SWAP1 DUP2 ADD PUSH1 0x40 MSTORE DUP1 SWAP4 SWAP3 SWAP2 SWAP1 DUP2 DUP2 MSTORE PUSH1 0x20 ADD DUP4 DUP4 DUP1 DUP3 DUP5 CALLDATACOPY PUSH1 0x0 DUP2 DUP5 ADD MSTORE PUSH1 0x1F NOT PUSH1 0x1F DUP3 ADD AND SWAP1 POP DUP1 DUP4 ADD SWAP3 POP POP POP POP POP POP POP DUP11 PUSH2 0x9CF JUMP JUMPDEST SWAP1 POP PUSH1 0x0 DUP2 PUSH2 0xFFFF AND EQ DUP1 ISZERO PUSH2 0x328 JUMPI POP PUSH1 0x40 MLOAD PUSH1 0x20 ADD PUSH2 0x2E7 SWAP1 PUSH2 0xDBD JUMP JUMPDEST PUSH1 0x40 MLOAD PUSH1 0x20 DUP2 DUP4 SUB SUB DUP2 MSTORE SWAP1 PUSH1 0x40 MSTORE DUP1 MLOAD SWAP1 PUSH1 0x20 ADD KECCAK256 DUP7 DUP7 PUSH1 0x40 MLOAD PUSH1 0x20 ADD PUSH2 0x310 SWAP3 SWAP2 SWAP1 PUSH2 0xD7A JUMP JUMPDEST PUSH1 0x40 MLOAD PUSH1 0x20 DUP2 DUP4 SUB SUB DUP2 MSTORE SWAP1 PUSH1 0x40 MSTORE DUP1 MLOAD SWAP1 PUSH1 0x20 ADD KECCAK256 EQ JUMPDEST DUP1 PUSH2 0x38E JUMPI POP PUSH1 0x63 DUP2 PUSH2 0xFFFF AND EQ DUP1 ISZERO PUSH2 0x38D JUMPI POP PUSH1 0x40 MLOAD PUSH1 0x20 ADD PUSH2 0x34C SWAP1 PUSH2 0xDBD JUMP JUMPDEST PUSH1 0x40 MLOAD PUSH1 0x20 DUP2 DUP4 SUB SUB DUP2 MSTORE SWAP1 PUSH1 0x40 MSTORE DUP1 MLOAD SWAP1 PUSH1 0x20 ADD KECCAK256 DUP7 DUP7 PUSH1 0x40 MLOAD PUSH1 0x20 ADD PUSH2 0x375 SWAP3 SWAP2 SWAP1 PUSH2 0xD7A JUMP JUMPDEST PUSH1 0x40 MLOAD PUSH1 0x20 DUP2 DUP4 SUB SUB DUP2 MSTORE SWAP1 PUSH1 0x40 MSTORE DUP1 MLOAD SWAP1 PUSH1 0x20 ADD KECCAK256 EQ JUMPDEST JUMPDEST ISZERO PUSH2 0x46A JUMPI PUSH1 0x0 DUP1 SLOAD SWAP1 PUSH2 0x100 EXP SWAP1 DIV PUSH20 0xFFFFFFFFFFFFFFFFFFFFFFFFFFFFFFFFFFFFFFFF AND PUSH20 0xFFFFFFFFFFFFFFFFFFFFFFFFFFFFFFFFFFFFFFFF AND PUSH4 0x40C10F19 CALLER PUSH1 0xF DUP11 PUSH2 0x3DD SWAP2 SWAP1 PUSH2 0xF00 JUMP JUMPDEST PUSH1 0x40 MLOAD DUP4 PUSH4 0xFFFFFFFF AND PUSH1 0xE0 SHL DUP2 MSTORE PUSH1 0x4 ADD PUSH2 0x3FA SWAP3 SWAP2 SWAP1 PUSH2 0xE02 JUMP JUMPDEST PUSH1 0x0 PUSH1 0x40 MLOAD DUP1 DUP4 SUB DUP2 PUSH1 0x0 DUP8 DUP1 EXTCODESIZE ISZERO DUP1 ISZERO PUSH2 0x414 JUMPI PUSH1 0x0 DUP1 REVERT JUMPDEST POP GAS CALL ISZERO DUP1 ISZERO PUSH2 0x428 JUMPI RETURNDATASIZE PUSH1 0x0 DUP1 RETURNDATACOPY RETURNDATASIZE PUSH1 0x0 REVERT JUMPDEST POP POP POP POP PUSH1 0x40 MLOAD DUP1 PUSH1 0x40 ADD PUSH1 0x40 MSTORE DUP1 PUSH1 0x12 DUP2 MSTORE PUSH1 0x20 ADD PUSH32 0x434F4E475241545321203135782057494E210000000000000000000000000000 DUP2 MSTORE POP SWAP4 POP POP PUSH2 0x721 JUMP JUMPDEST PUSH1 0x40 MLOAD PUSH1 0x20 ADD PUSH2 0x479 SWAP1 PUSH2 0xDA8 JUMP JUMPDEST PUSH1 0x40 MLOAD PUSH1 0x20 DUP2 DUP4 SUB SUB DUP2 MSTORE SWAP1 PUSH1 0x40 MSTORE DUP1 MLOAD SWAP1 PUSH1 0x20 ADD KECCAK256 DUP7 DUP7 PUSH1 0x40 MLOAD PUSH1 0x20 ADD PUSH2 0x4A2 SWAP3 SWAP2 SWAP1 PUSH2 0xD7A JUMP JUMPDEST PUSH1 0x40 MLOAD PUSH1 0x20 DUP2 DUP4 SUB SUB DUP2 MSTORE SWAP1 PUSH1 0x40 MSTORE DUP1 MLOAD SWAP1 PUSH1 0x20 ADD KECCAK256 EQ DUP1 ISZERO PUSH2 0x4CA JUMPI POP PUSH1 0x1 DUP2 PUSH2 0xFFFF AND LT ISZERO JUMPDEST DUP1 ISZERO PUSH2 0x4DB JUMPI POP PUSH1 0x31 DUP2 PUSH2 0xFFFF AND GT ISZERO JUMPDEST ISZERO PUSH2 0x5B7 JUMPI PUSH1 0x0 DUP1 SLOAD SWAP1 PUSH2 0x100 EXP SWAP1 DIV PUSH20 0xFFFFFFFFFFFFFFFFFFFFFFFFFFFFFFFFFFFFFFFF AND PUSH20 0xFFFFFFFFFFFFFFFFFFFFFFFFFFFFFFFFFFFFFFFF AND PUSH4 0x40C10F19 CALLER PUSH1 0x2 DUP11 PUSH2 0x52A SWAP2 SWAP1 PUSH2 0xF00 JUMP JUMPDEST PUSH1 0x40 MLOAD DUP4 PUSH4 0xFFFFFFFF AND PUSH1 0xE0 SHL DUP2 MSTORE PUSH1 0x4 ADD PUSH2 0x547 SWAP3 SWAP2 SWAP1 PUSH2 0xE02 JUMP JUMPDEST PUSH1 0x0 PUSH1 0x40 MLOAD DUP1 DUP4 SUB DUP2 PUSH1 0x0 DUP8 DUP1 EXTCODESIZE ISZERO DUP1 ISZERO PUSH2 0x561 JUMPI PUSH1 0x0 DUP1 REVERT JUMPDEST POP GAS CALL ISZERO DUP1 ISZERO PUSH2 0x575 JUMPI RETURNDATASIZE PUSH1 0x0 DUP1 RETURNDATACOPY RETURNDATASIZE PUSH1 0x0 REVERT JUMPDEST POP POP POP POP PUSH1 0x40 MLOAD DUP1 PUSH1 0x40 ADD PUSH1 0x40 MSTORE DUP1 PUSH1 0x11 DUP2 MSTORE PUSH1 0x20 ADD PUSH32 0x436F6E6772617473212032782077696E21000000000000000000000000000000 DUP2 MSTORE POP SWAP4 POP POP PUSH2 0x721 JUMP JUMPDEST PUSH1 0x40 MLOAD PUSH1 0x20 ADD PUSH2 0x5C6 SWAP1 PUSH2 0xD93 JUMP JUMPDEST PUSH1 0x40 MLOAD PUSH1 0x20 DUP2 DUP4 SUB SUB DUP2 MSTORE SWAP1 PUSH1 0x40 MSTORE DUP1 MLOAD SWAP1 PUSH1 0x20 ADD KECCAK256 DUP7 DUP7 PUSH1 0x40 MLOAD PUSH1 0x20 ADD PUSH2 0x5EF SWAP3 SWAP2 SWAP1 PUSH2 0xD7A JUMP JUMPDEST PUSH1 0x40 MLOAD PUSH1 0x20 DUP2 DUP4 SUB SUB DUP2 MSTORE SWAP1 PUSH1 0x40 MSTORE DUP1 MLOAD SWAP1 PUSH1 0x20 ADD KECCAK256 EQ DUP1 ISZERO PUSH2 0x617 JUMPI POP PUSH1 0x32 DUP2 PUSH2 0xFFFF AND LT ISZERO JUMPDEST DUP1 ISZERO PUSH2 0x628 JUMPI POP PUSH1 0x62 DUP2 PUSH2 0xFFFF AND GT ISZERO JUMPDEST ISZERO PUSH2 0x704 JUMPI PUSH1 0x0 DUP1 SLOAD SWAP1 PUSH2 0x100 EXP SWAP1 DIV PUSH20 0xFFFFFFFFFFFFFFFFFFFFFFFFFFFFFFFFFFFFFFFF AND PUSH20 0xFFFFFFFFFFFFFFFFFFFFFFFFFFFFFFFFFFFFFFFF AND PUSH4 0x40C10F19 CALLER PUSH1 0x2 DUP11 PUSH2 0x677 SWAP2 SWAP1 PUSH2 0xF00 JUMP JUMPDEST PUSH1 0x40 MLOAD DUP4 PUSH4 0xFFFFFFFF AND PUSH1 0xE0 SHL DUP2 MSTORE PUSH1 0x4 ADD PUSH2 0x694 SWAP3 SWAP2 SWAP1 PUSH2 0xE02 JUMP JUMPDEST PUSH1 0x0 PUSH1 0x40 MLOAD DUP1 DUP4 SUB DUP2 PUSH1 0x0 DUP8 DUP1 EXTCODESIZE ISZERO DUP1 ISZERO PUSH2 0x6AE JUMPI PUSH1 0x0 DUP1 REVERT JUMPDEST POP GAS CALL ISZERO DUP1 ISZERO PUSH2 0x6C2 JUMPI RETURNDATASIZE PUSH1 0x0 DUP1 RETURNDATACOPY RETURNDATASIZE PUSH1 0x0 REVERT JUMPDEST POP POP POP POP PUSH1 0x40 MLOAD DUP1 PUSH1 0x40 ADD PUSH1 0x40 MSTORE DUP1 PUSH1 0x11 DUP2 MSTORE PUSH1 0x20 ADD PUSH32 0x436F6E6772617473212032782077696E21000000000000000000000000000000 DUP2 MSTORE POP SWAP4 POP POP PUSH2 0x721 JUMP JUMPDEST PUSH1 0x40 MLOAD DUP1 PUSH1 0x60 ADD PUSH1 0x40 MSTORE DUP1 PUSH1 0x26 DUP2 MSTORE PUSH1 0x20 ADD PUSH2 0x1172 PUSH1 0x26 SWAP2 CODECOPY SWAP4 POP POP JUMPDEST POP POP SWAP4 SWAP3 POP POP POP JUMP JUMPDEST PUSH1 0x0 DUP1 SLOAD SWAP1 PUSH2 0x100 EXP SWAP1 DIV PUSH20 0xFFFFFFFFFFFFFFFFFFFFFFFFFFFFFFFFFFFFFFFF AND PUSH20 0xFFFFFFFFFFFFFFFFFFFFFFFFFFFFFFFFFFFFFFFF AND PUSH4 0x40C10F19 CALLER PUSH1 0x5 CALLVALUE PUSH2 0x774 SWAP2 SWAP1 PUSH2 0xF00 JUMP JUMPDEST PUSH1 0x40 MLOAD DUP4 PUSH4 0xFFFFFFFF AND PUSH1 0xE0 SHL DUP2 MSTORE PUSH1 0x4 ADD PUSH2 0x791 SWAP3 SWAP2 SWAP1 PUSH2 0xE02 JUMP JUMPDEST PUSH1 0x0 PUSH1 0x40 MLOAD DUP1 DUP4 SUB DUP2 PUSH1 0x0 DUP8 DUP1 EXTCODESIZE ISZERO DUP1 ISZERO PUSH2 0x7AB JUMPI PUSH1 0x0 DUP1 REVERT JUMPDEST POP GAS CALL ISZERO DUP1 ISZERO PUSH2 0x7BF JUMPI RETURNDATASIZE PUSH1 0x0 DUP1 RETURNDATACOPY RETURNDATASIZE PUSH1 0x0 REVERT JUMPDEST POP POP POP POP JUMP JUMPDEST PUSH1 0x60 DUP3 CALLER PUSH1 0x0 DUP1 SLOAD SWAP1 PUSH2 0x100 EXP SWAP1 DIV PUSH20 0xFFFFFFFFFFFFFFFFFFFFFFFFFFFFFFFFFFFFFFFF AND PUSH20 0xFFFFFFFFFFFFFFFFFFFFFFFFFFFFFFFFFFFFFFFF AND PUSH4 0xA9059CBB PUSH1 0x1 PUSH1 0x0 SWAP1 SLOAD SWAP1 PUSH2 0x100 EXP SWAP1 DIV PUSH20 0xFFFFFFFFFFFFFFFFFFFFFFFFFFFFFFFFFFFFFFFF AND DUP5 PUSH1 0x40 MLOAD DUP4 PUSH4 0xFFFFFFFF AND PUSH1 0xE0 SHL DUP2 MSTORE PUSH1 0x4 ADD PUSH2 0x846 SWAP3 SWAP2 SWAP1 PUSH2 0xE02 JUMP JUMPDEST PUSH1 0x0 PUSH1 0x40 MLOAD DUP1 DUP4 SUB DUP2 PUSH1 0x0 DUP8 DUP1 EXTCODESIZE ISZERO DUP1 ISZERO PUSH2 0x860 JUMPI PUSH1 0x0 DUP1 REVERT JUMPDEST POP GAS CALL ISZERO DUP1 ISZERO PUSH2 0x874 JUMPI RETURNDATASIZE PUSH1 0x0 DUP1 RETURNDATACOPY RETURNDATASIZE PUSH1 0x0 REVERT JUMPDEST POP POP POP POP PUSH1 0x0 DUP5 PUSH2 0xFFFF AND LT ISZERO DUP1 ISZERO PUSH2 0x892 JUMPI POP PUSH1 0x63 DUP5 PUSH2 0xFFFF AND GT ISZERO JUMPDEST PUSH2 0x89B JUMPI PUSH1 0x0 DUP1 REVERT JUMPDEST PUSH1 0x0 PUSH2 0x8DE CALLER DUP7 PUSH1 0x40 MLOAD DUP1 PUSH1 0x40 ADD PUSH1 0x40 MSTORE DUP1 PUSH1 0x4 DUP2 MSTORE PUSH1 0x20 ADD PUSH32 0x54454D5000000000000000000000000000000000000000000000000000000000 DUP2 MSTORE POP DUP10 PUSH2 0x9CF JUMP JUMPDEST SWAP1 POP DUP5 PUSH2 0xFFFF AND DUP2 PUSH2 0xFFFF AND EQ ISZERO PUSH2 0x9AA JUMPI PUSH1 0x0 DUP1 SLOAD SWAP1 PUSH2 0x100 EXP SWAP1 DIV PUSH20 0xFFFFFFFFFFFFFFFFFFFFFFFFFFFFFFFFFFFFFFFF AND PUSH20 0xFFFFFFFFFFFFFFFFFFFFFFFFFFFFFFFFFFFFFFFF AND PUSH4 0x40C10F19 CALLER PUSH1 0x64 DUP10 PUSH2 0x93A SWAP2 SWAP1 PUSH2 0xF00 JUMP JUMPDEST PUSH1 0x40 MLOAD DUP4 PUSH4 0xFFFFFFFF AND PUSH1 0xE0 SHL DUP2 MSTORE PUSH1 0x4 ADD PUSH2 0x957 SWAP3 SWAP2 SWAP1 PUSH2 0xE02 JUMP JUMPDEST PUSH1 0x0 PUSH1 0x40 MLOAD DUP1 DUP4 SUB DUP2 PUSH1 0x0 DUP8 DUP1 EXTCODESIZE ISZERO DUP1 ISZERO PUSH2 0x971 JUMPI PUSH1 0x0 DUP1 REVERT JUMPDEST POP GAS CALL ISZERO DUP1 ISZERO PUSH2 0x985 JUMPI RETURNDATASIZE PUSH1 0x0 DUP1 RETURNDATACOPY RETURNDATASIZE PUSH1 0x0 REVERT JUMPDEST POP POP POP POP PUSH1 0x40 MLOAD DUP1 PUSH1 0x60 ADD PUSH1 0x40 MSTORE DUP1 PUSH1 0x30 DUP2 MSTORE PUSH1 0x20 ADD PUSH2 0x1198 PUSH1 0x30 SWAP2 CODECOPY SWAP4 POP POP PUSH2 0x9C7 JUMP JUMPDEST PUSH1 0x40 MLOAD DUP1 PUSH1 0x60 ADD PUSH1 0x40 MSTORE DUP1 PUSH1 0x26 DUP2 MSTORE PUSH1 0x20 ADD PUSH2 0x1172 PUSH1 0x26 SWAP2 CODECOPY SWAP4 POP POP JUMPDEST POP POP SWAP3 SWAP2 POP POP JUMP JUMPDEST PUSH1 0x0 DUP1 NUMBER BLOCKHASH PUSH1 0x0 SHR SWAP1 POP PUSH1 0x0 DUP7 PUSH1 0x40 MLOAD PUSH1 0x20 ADD PUSH2 0x9EC SWAP2 SWAP1 PUSH2 0xDE7 JUMP JUMPDEST PUSH1 0x40 MLOAD PUSH1 0x20 DUP2 DUP4 SUB SUB DUP2 MSTORE SWAP1 PUSH1 0x40 MSTORE DUP1 MLOAD SWAP1 PUSH1 0x20 ADD KECCAK256 PUSH1 0x0 SHR SWAP1 POP PUSH1 0x0 DUP7 PUSH1 0x40 MLOAD PUSH1 0x20 ADD PUSH2 0xA1A SWAP2 SWAP1 PUSH2 0xE4D JUMP JUMPDEST PUSH1 0x40 MLOAD PUSH1 0x20 DUP2 DUP4 SUB SUB DUP2 MSTORE SWAP1 PUSH1 0x40 MSTORE DUP1 MLOAD SWAP1 PUSH1 0x20 ADD KECCAK256 PUSH1 0x0 SHR SWAP1 POP PUSH1 0x0 DUP7 PUSH1 0x40 MLOAD PUSH1 0x20 ADD PUSH2 0xA48 SWAP2 SWAP1 PUSH2 0xE2B JUMP JUMPDEST PUSH1 0x40 MLOAD PUSH1 0x20 DUP2 DUP4 SUB SUB DUP2 MSTORE SWAP1 PUSH1 0x40 MSTORE DUP1 MLOAD SWAP1 PUSH1 0x20 ADD KECCAK256 PUSH1 0x0 SHR SWAP1 POP PUSH1 0x0 DUP7 PUSH1 0x40 MLOAD PUSH1 0x20 ADD PUSH2 0xA76 SWAP2 SWAP1 PUSH2 0xE68 JUMP JUMPDEST PUSH1 0x40 MLOAD PUSH1 0x20 DUP2 DUP4 SUB SUB DUP2 MSTORE SWAP1 PUSH1 0x40 MSTORE DUP1 MLOAD SWAP1 PUSH1 0x20 ADD KECCAK256 PUSH1 0x0 SHR SWAP1 POP PUSH1 0x64 PUSH2 0x3E8 DUP3 PUSH2 0xAA1 SWAP2 SWAP1 PUSH2 0xFE6 JUMP JUMPDEST PUSH2 0x3E8 DUP5 PUSH2 0xAAF SWAP2 SWAP1 PUSH2 0xFE6 JUMP JUMPDEST PUSH2 0x3E8 DUP7 PUSH2 0xABD SWAP2 SWAP1 PUSH2 0xFE6 JUMP JUMPDEST PUSH2 0x3E8 DUP9 PUSH2 0xACB SWAP2 SWAP1 PUSH2 0xFE6 JUMP JUMPDEST PUSH2 0x3E8 DUP11 PUSH2 0xAD9 SWAP2 SWAP1 PUSH2 0xFE6 JUMP JUMPDEST PUSH2 0xAE3 SWAP2 SWAP1 PUSH2 0xEAA JUMP JUMPDEST PUSH2 0xAED SWAP2 SWAP1 PUSH2 0xEAA JUMP JUMPDEST PUSH2 0xAF7 SWAP2 SWAP1 PUSH2 0xEAA JUMP JUMPDEST PUSH2 0xB01 SWAP2 SWAP1 PUSH2 0xEAA JUMP JUMPDEST PUSH1 0x40 MLOAD PUSH1 0x20 ADD PUSH2 0xB11 SWAP2 SWAP1 PUSH2 0xE68 JUMP JUMPDEST PUSH1 0x40 MLOAD PUSH1 0x20 DUP2 DUP4 SUB SUB DUP2 MSTORE SWAP1 PUSH1 0x40 MSTORE DUP1 MLOAD SWAP1 PUSH1 0x20 ADD KECCAK256 PUSH1 0x0 SHR PUSH2 0xB34 SWAP2 SWAP1 PUSH2 0xFE6 JUMP JUMPDEST SWAP6 POP POP POP POP POP POP SWAP5 SWAP4 POP POP POP POP JUMP JUMPDEST PUSH1 0x0 DUP1 DUP4 PUSH1 0x1F DUP5 ADD SLT PUSH2 0xB59 JUMPI PUSH2 0xB58 PUSH2 0x107A JUMP JUMPDEST JUMPDEST DUP3 CALLDATALOAD SWAP1 POP PUSH8 0xFFFFFFFFFFFFFFFF DUP2 GT ISZERO PUSH2 0xB76 JUMPI PUSH2 0xB75 PUSH2 0x1075 JUMP JUMPDEST JUMPDEST PUSH1 0x20 DUP4 ADD SWAP2 POP DUP4 PUSH1 0x1 DUP3 MUL DUP4 ADD GT ISZERO PUSH2 0xB92 JUMPI PUSH2 0xB91 PUSH2 0x107F JUMP JUMPDEST JUMPDEST SWAP3 POP SWAP3 SWAP1 POP JUMP JUMPDEST PUSH1 0x0 DUP2 CALLDATALOAD SWAP1 POP PUSH2 0xBA8 DUP2 PUSH2 0x1143 JUMP JUMPDEST SWAP3 SWAP2 POP POP JUMP JUMPDEST PUSH1 0x0 DUP2 CALLDATALOAD SWAP1 POP PUSH2 0xBBD DUP2 PUSH2 0x115A JUMP JUMPDEST SWAP3 SWAP2 POP POP JUMP JUMPDEST PUSH1 0x0 DUP1 PUSH1 0x0 PUSH1 0x40 DUP5 DUP7 SUB SLT ISZERO PUSH2 0xBDC JUMPI PUSH2 0xBDB PUSH2 0x1089 JUMP JUMPDEST JUMPDEST PUSH1 0x0 PUSH2 0xBEA DUP7 DUP3 DUP8 ADD PUSH2 0xBAE JUMP JUMPDEST SWAP4 POP POP PUSH1 0x20 DUP5 ADD CALLDATALOAD PUSH8 0xFFFFFFFFFFFFFFFF DUP2 GT ISZERO PUSH2 0xC0B JUMPI PUSH2 0xC0A PUSH2 0x1084 JUMP JUMPDEST JUMPDEST PUSH2 0xC17 DUP7 DUP3 DUP8 ADD PUSH2 0xB43 JUMP JUMPDEST SWAP3 POP SWAP3 POP POP SWAP3 POP SWAP3 POP SWAP3 JUMP JUMPDEST PUSH1 0x0 DUP1 PUSH1 0x40 DUP4 DUP6 SUB SLT ISZERO PUSH2 0xC3A JUMPI PUSH2 0xC39 PUSH2 0x1089 JUMP JUMPDEST JUMPDEST PUSH1 0x0 PUSH2 0xC48 DUP6 DUP3 DUP7 ADD PUSH2 0xBAE JUMP JUMPDEST SWAP3 POP POP PUSH1 0x20 PUSH2 0xC59 DUP6 DUP3 DUP7 ADD PUSH2 0xB99 JUMP JUMPDEST SWAP2 POP POP SWAP3 POP SWAP3 SWAP1 POP JUMP JUMPDEST PUSH2 0xC6C DUP2 PUSH2 0xF5A JUMP JUMPDEST DUP3 MSTORE POP POP JUMP JUMPDEST PUSH1 0x0 PUSH2 0xC7E DUP4 DUP6 PUSH2 0xE9F JUMP JUMPDEST SWAP4 POP PUSH2 0xC8B DUP4 DUP6 DUP5 PUSH2 0xFA4 JUMP JUMPDEST DUP3 DUP5 ADD SWAP1 POP SWAP4 SWAP3 POP POP POP JUMP JUMPDEST PUSH1 0x0 PUSH2 0xCA2 DUP3 PUSH2 0xE83 JUMP JUMPDEST PUSH2 0xCAC DUP2 DUP6 PUSH2 0xE8E JUMP JUMPDEST SWAP4 POP PUSH2 0xCBC DUP2 DUP6 PUSH1 0x20 DUP7 ADD PUSH2 0xFB3 JUMP JUMPDEST PUSH2 0xCC5 DUP2 PUSH2 0x108E JUMP JUMPDEST DUP5 ADD SWAP2 POP POP SWAP3 SWAP2 POP POP JUMP JUMPDEST PUSH1 0x0 PUSH2 0xCDD PUSH1 0x3 DUP4 PUSH2 0xE9F JUMP JUMPDEST SWAP2 POP PUSH2 0xCE8 DUP3 PUSH2 0x109F JUMP JUMPDEST PUSH1 0x3 DUP3 ADD SWAP1 POP SWAP2 SWAP1 POP JUMP JUMPDEST PUSH1 0x0 PUSH2 0xD00 PUSH1 0x5 DUP4 PUSH2 0xE9F JUMP JUMPDEST SWAP2 POP PUSH2 0xD0B DUP3 PUSH2 0x10C8 JUMP JUMPDEST PUSH1 0x5 DUP3 ADD SWAP1 POP SWAP2 SWAP1 POP JUMP JUMPDEST PUSH1 0x0 PUSH2 0xD23 PUSH1 0x5 DUP4 PUSH2 0xE9F JUMP JUMPDEST SWAP2 POP PUSH2 0xD2E DUP3 PUSH2 0x10F1 JUMP JUMPDEST PUSH1 0x5 DUP3 ADD SWAP1 POP SWAP2 SWAP1 POP JUMP JUMPDEST PUSH1 0x0 PUSH2 0xD46 PUSH1 0x4 DUP4 PUSH2 0xE9F JUMP JUMPDEST SWAP2 POP PUSH2 0xD51 DUP3 PUSH2 0x111A JUMP JUMPDEST PUSH1 0x4 DUP3 ADD SWAP1 POP SWAP2 SWAP1 POP JUMP JUMPDEST PUSH2 0xD65 DUP2 PUSH2 0xF6C JUMP JUMPDEST DUP3 MSTORE POP POP JUMP JUMPDEST PUSH2 0xD74 DUP2 PUSH2 0xF9A JUMP JUMPDEST DUP3 MSTORE POP POP JUMP JUMPDEST PUSH1 0x0 PUSH2 0xD87 DUP3 DUP5 DUP7 PUSH2 0xC72 JUMP JUMPDEST SWAP2 POP DUP2 SWAP1 POP SWAP4 SWAP3 POP POP POP JUMP JUMPDEST PUSH1 0x0 PUSH2 0xD9E DUP3 PUSH2 0xCD0 JUMP JUMPDEST SWAP2 POP DUP2 SWAP1 POP SWAP2 SWAP1 POP JUMP JUMPDEST PUSH1 0x0 PUSH2 0xDB3 DUP3 PUSH2 0xCF3 JUMP JUMPDEST SWAP2 POP DUP2 SWAP1 POP SWAP2 SWAP1 POP JUMP JUMPDEST PUSH1 0x0 PUSH2 0xDC8 DUP3 PUSH2 0xD16 JUMP JUMPDEST SWAP2 POP DUP2 SWAP1 POP SWAP2 SWAP1 POP JUMP JUMPDEST PUSH1 0x0 PUSH2 0xDDD DUP3 PUSH2 0xD39 JUMP JUMPDEST SWAP2 POP DUP2 SWAP1 POP SWAP2 SWAP1 POP JUMP JUMPDEST PUSH1 0x0 PUSH1 0x20 DUP3 ADD SWAP1 POP PUSH2 0xDFC PUSH1 0x0 DUP4 ADD DUP5 PUSH2 0xC63 JUMP JUMPDEST SWAP3 SWAP2 POP POP JUMP JUMPDEST PUSH1 0x0 PUSH1 0x40 DUP3 ADD SWAP1 POP PUSH2 0xE17 PUSH1 0x0 DUP4 ADD DUP6 PUSH2 0xC63 JUMP JUMPDEST PUSH2 0xE24 PUSH1 0x20 DUP4 ADD DUP5 PUSH2 0xD6B JUMP JUMPDEST SWAP4 SWAP3 POP POP POP JUMP JUMPDEST PUSH1 0x0 PUSH1 0x20 DUP3 ADD SWAP1 POP DUP2 DUP2 SUB PUSH1 0x0 DUP4 ADD MSTORE PUSH2 0xE45 DUP2 DUP5 PUSH2 0xC97 JUMP JUMPDEST SWAP1 POP SWAP3 SWAP2 POP POP JUMP JUMPDEST PUSH1 0x0 PUSH1 0x20 DUP3 ADD SWAP1 POP PUSH2 0xE62 PUSH1 0x0 DUP4 ADD DUP5 PUSH2 0xD5C JUMP JUMPDEST SWAP3 SWAP2 POP POP JUMP JUMPDEST PUSH1 0x0 PUSH1 0x20 DUP3 ADD SWAP1 POP PUSH2 0xE7D PUSH1 0x0 DUP4 ADD DUP5 PUSH2 0xD6B JUMP JUMPDEST SWAP3 SWAP2 POP POP JUMP JUMPDEST PUSH1 0x0 DUP2 MLOAD SWAP1 POP SWAP2 SWAP1 POP JUMP JUMPDEST PUSH1 0x0 DUP3 DUP3 MSTORE PUSH1 0x20 DUP3 ADD SWAP1 POP SWAP3 SWAP2 POP POP JUMP JUMPDEST PUSH1 0x0 DUP2 SWAP1 POP SWAP3 SWAP2 POP POP JUMP JUMPDEST PUSH1 0x0 PUSH2 0xEB5 DUP3 PUSH2 0xF9A JUMP JUMPDEST SWAP2 POP PUSH2 0xEC0 DUP4 PUSH2 0xF9A JUMP JUMPDEST SWAP3 POP DUP3 PUSH32 0xFFFFFFFFFFFFFFFFFFFFFFFFFFFFFFFFFFFFFFFFFFFFFFFFFFFFFFFFFFFFFFFF SUB DUP3 GT ISZERO PUSH2 0xEF5 JUMPI PUSH2 0xEF4 PUSH2 0x1017 JUMP JUMPDEST JUMPDEST DUP3 DUP3 ADD SWAP1 POP SWAP3 SWAP2 POP POP JUMP JUMPDEST PUSH1 0x0 PUSH2 0xF0B DUP3 PUSH2 0xF9A JUMP JUMPDEST SWAP2 POP PUSH2 0xF16 DUP4 PUSH2 0xF9A JUMP JUMPDEST SWAP3 POP DUP2 PUSH32 0xFFFFFFFFFFFFFFFFFFFFFFFFFFFFFFFFFFFFFFFFFFFFFFFFFFFFFFFFFFFFFFFF DIV DUP4 GT DUP3 ISZERO ISZERO AND ISZERO PUSH2 0xF4F JUMPI PUSH2 0xF4E PUSH2 0x1017 JUMP JUMPDEST JUMPDEST DUP3 DUP3 MUL SWAP1 POP SWAP3 SWAP2 POP POP JUMP JUMPDEST PUSH1 0x0 PUSH2 0xF65 DUP3 PUSH2 0xF7A JUMP JUMPDEST SWAP1 POP SWAP2 SWAP1 POP JUMP JUMPDEST PUSH1 0x0 PUSH2 0xFFFF DUP3 AND SWAP1 POP SWAP2 SWAP1 POP JUMP JUMPDEST PUSH1 0x0 PUSH20 0xFFFFFFFFFFFFFFFFFFFFFFFFFFFFFFFFFFFFFFFF DUP3 AND SWAP1 POP SWAP2 SWAP1 POP JUMP JUMPDEST PUSH1 0x0 DUP2 SWAP1 POP SWAP2 SWAP1 POP JUMP JUMPDEST DUP3 DUP2 DUP4 CALLDATACOPY PUSH1 0x0 DUP4 DUP4 ADD MSTORE POP POP POP JUMP JUMPDEST PUSH1 0x0 JUMPDEST DUP4 DUP2 LT ISZERO PUSH2 0xFD1 JUMPI DUP1 DUP3 ADD MLOAD DUP2 DUP5 ADD MSTORE PUSH1 0x20 DUP2 ADD SWAP1 POP PUSH2 0xFB6 JUMP JUMPDEST DUP4 DUP2 GT ISZERO PUSH2 0xFE0 JUMPI PUSH1 0x0 DUP5 DUP5 ADD MSTORE JUMPDEST POP POP POP POP JUMP JUMPDEST PUSH1 0x0 PUSH2 0xFF1 DUP3 PUSH2 0xF9A JUMP JUMPDEST SWAP2 POP PUSH2 0xFFC DUP4 PUSH2 0xF9A JUMP JUMPDEST SWAP3 POP DUP3 PUSH2 0x100C JUMPI PUSH2 0x100B PUSH2 0x1046 JUMP JUMPDEST JUMPDEST DUP3 DUP3 MOD SWAP1 POP SWAP3 SWAP2 POP POP JUMP JUMPDEST PUSH32 0x4E487B7100000000000000000000000000000000000000000000000000000000 PUSH1 0x0 MSTORE PUSH1 0x11 PUSH1 0x4 MSTORE PUSH1 0x24 PUSH1 0x0 REVERT JUMPDEST PUSH32 0x4E487B7100000000000000000000000000000000000000000000000000000000 PUSH1 0x0 MSTORE PUSH1 0x12 PUSH1 0x4 MSTORE PUSH1 0x24 PUSH1 0x0 REVERT JUMPDEST PUSH1 0x0 DUP1 REVERT JUMPDEST PUSH1 0x0 DUP1 REVERT JUMPDEST PUSH1 0x0 DUP1 REVERT JUMPDEST PUSH1 0x0 DUP1 REVERT JUMPDEST PUSH1 0x0 DUP1 REVERT JUMPDEST PUSH1 0x0 PUSH1 0x1F NOT PUSH1 0x1F DUP4 ADD AND SWAP1 POP SWAP2 SWAP1 POP JUMP JUMPDEST PUSH32 0x7265640000000000000000000000000000000000000000000000000000000000 PUSH1 0x0 DUP3 ADD MSTORE POP JUMP JUMPDEST PUSH32 0x626C61636B000000000000000000000000000000000000000000000000000000 PUSH1 0x0 DUP3 ADD MSTORE POP JUMP JUMPDEST PUSH32 0x677265656E000000000000000000000000000000000000000000000000000000 PUSH1 0x0 DUP3 ADD MSTORE POP JUMP JUMPDEST PUSH32 0x626C756500000000000000000000000000000000000000000000000000000000 PUSH1 0x0 DUP3 ADD MSTORE POP JUMP JUMPDEST PUSH2 0x114C DUP2 PUSH2 0xF6C JUMP JUMPDEST DUP2 EQ PUSH2 0x1157 JUMPI PUSH1 0x0 DUP1 REVERT JUMPDEST POP JUMP JUMPDEST PUSH2 0x1163 DUP2 PUSH2 0xF9A JUMP JUMPDEST DUP2 EQ PUSH2 0x116E JUMPI PUSH1 0x0 DUP1 REVERT JUMPDEST POP JUMP INVALID MSIZE PUSH16 0x752068617665206C6F73742E20556E66 PUSH16 0x7274756E6174652E2054727920616761 PUSH10 0x6E21434F4E4752415453 0x21 KECCAK256 MSIZE 0x4F SSTORE KECCAK256 BASEFEE COINBASE JUMP GASLIMIT KECCAK256 0x4A SSTORE MSTORE8 SLOAD KECCAK256 JUMPI 0x4F 0x4E KECCAK256 COINBASE KECCAK256 MSTORE8 SSTORE POP GASLIMIT MSTORE KECCAK256 POP MSTORE 0x49 GAS GASLIMIT 0x21 KECCAK256 PUSH25 0x31303021A264697066735822122056324A384EF5EFB582FE0A SUB LT SWAP7 EXTCODESIZE EXP LOG2 0xE8 SWAP11 DUP13 0xF8 0x29 0x1F 0x4E SDIV SELFDESTRUCT 0xD6 0x4A 0x22 EQ SHL 0xBD PUSH5 0x736F6C6343 STOP ADDMOD SMOD STOP CALLER "
		},
		"gasEstimates": {
			"creation": {
				"codeDepositCost": "921000",
				"executionCost": "51625",
				"totalCost": "972625"
			},
			"external": {
				"Bet_and_play_on_color(uint256,string)": "infinite",
				"Bet_and_play_on_number(uint256,uint16)": "infinite",
				"Top_up_balance()": "infinite"
			},
			"internal": {
				"rnd(address,uint16,string memory,uint256)": "infinite"
			}
		},
		"methodIdentifiers": {
			"Bet_and_play_on_color(uint256,string)": "1a670a74",
			"Bet_and_play_on_number(uint256,uint16)": "f529f7b7",
			"Top_up_balance()": "af674c57"
		}
	},
	"abi": [
		{
			"inputs": [],
			"stateMutability": "nonpayable",
			"type": "constructor"
		},
		{
			"inputs": [
				{
					"internalType": "uint256",
					"name": "bet",
					"type": "uint256"
				},
				{
					"internalType": "string",
					"name": "color",
					"type": "string"
				}
			],
			"name": "Bet_and_play_on_color",
			"outputs": [
				{
					"internalType": "string",
					"name": "",
					"type": "string"
				}
			],
			"stateMutability": "nonpayable",
			"type": "function"
		},
		{
			"inputs": [
				{
					"internalType": "uint256",
					"name": "bet",
					"type": "uint256"
				},
				{
					"internalType": "uint16",
					"name": "number",
					"type": "uint16"
				}
			],
			"name": "Bet_and_play_on_number",
			"outputs": [
				{
					"internalType": "string",
					"name": "",
					"type": "string"
				}
			],
			"stateMutability": "nonpayable",
			"type": "function"
		},
		{
			"inputs": [],
			"name": "Top_up_balance",
			"outputs": [],
			"stateMutability": "payable",
			"type": "function"
		}
	]
}