{
	"data": {
		"bytecode": {
			"linkReferences": {},
			"object": "60806040523480156200001157600080fd5b5060405162000a5a38038062000a5a8339818101604052810190620000379190620001b8565b81600290805190602001906200004f92919062000073565b5080600360146101000a81548160ff021916908360ff1602179055505050620003c9565b8280546200008190620002c0565b90600052602060002090601f016020900481019282620000a55760008555620000f1565b82601f10620000c057805160ff1916838001178555620000f1565b82800160010185558215620000f1579182015b82811115620000f0578251825591602001919060010190620000d3565b5b50905062000100919062000104565b5090565b5b808211156200011f57600081600090555060010162000105565b5090565b60006200013a620001348462000247565b6200021e565b9050828152602081018484840111156200015957620001586200038f565b5b620001668482856200028a565b509392505050565b600082601f8301126200018657620001856200038a565b5b81516200019884826020860162000123565b91505092915050565b600081519050620001b281620003af565b92915050565b60008060408385031215620001d257620001d162000399565b5b600083015167ffffffffffffffff811115620001f357620001f262000394565b5b62000201858286016200016e565b92505060206200021485828601620001a1565b9150509250929050565b60006200022a6200023d565b9050620002388282620002f6565b919050565b6000604051905090565b600067ffffffffffffffff8211156200026557620002646200035b565b5b62000270826200039e565b9050602081019050919050565b600060ff82169050919050565b60005b83811015620002aa5780820151818401526020810190506200028d565b83811115620002ba576000848401525b50505050565b60006002820490506001821680620002d957607f821691505b60208210811415620002f057620002ef6200032c565b5b50919050565b62000301826200039e565b810181811067ffffffffffffffff821117156200032357620003226200035b565b5b80604052505050565b7f4e487b7100000000000000000000000000000000000000000000000000000000600052602260045260246000fd5b7f4e487b7100000000000000000000000000000000000000000000000000000000600052604160045260246000fd5b600080fd5b600080fd5b600080fd5b600080fd5b6000601f19601f8301169050919050565b620003ba816200027d565b8114620003c657600080fd5b50565b61068180620003d96000396000f3fe608060405234801561001057600080fd5b50600436106100415760003560e01c80635cfa418514610046578063e6ac2c8214610064578063f4cd9d7414610094575b600080fd5b61004e6100c4565b60405161005b9190610410565b60405180910390f35b61007e6004803603810190610079919061035b565b610156565b60405161008b9190610410565b60405180910390f35b6100ae60048036038101906100a9919061039b565b6102d9565b6040516100bb9190610432565b60405180910390f35b6060600280546100d3906104e5565b80601f01602080910402602001604051908101604052809291908181526020018280546100ff906104e5565b801561014c5780601f106101215761010080835404028352916020019161014c565b820191906000526020600020905b81548152906001019060200180831161012f57829003601f168201915b5050505050905090565b60608160ff166001108061017e5750600360149054906101000a900460ff1660ff168260ff16115b156101a35760405180606001604052806022815260200161062a6022913990506102d3565b6000808473ffffffffffffffffffffffffffffffffffffffff1673ffffffffffffffffffffffffffffffffffffffff16815260200190815260200160002060009054906101000a900460ff1615610231576040518060400160405280601681526020017f596f752063616e6e6f7420766f74652074776963652e0000000000000000000081525090506102d3565b600160008360ff1660ff168152602001908152602001600020600081548092919061025b90610517565b919050555060016000808573ffffffffffffffffffffffffffffffffffffffff1673ffffffffffffffffffffffffffffffffffffffff16815260200190815260200160002060006101000a81548160ff0219169083151502179055506040518060600160405280602781526020016106036027913990505b92915050565b60008160ff16600110806103015750600360149054906101000a900460ff1660ff168260ff16115b1561030f576000905061032c565b600160008360ff1660ff1681526020019081526020016000205490505b919050565b600081359050610340816105d4565b92915050565b600081359050610355816105eb565b92915050565b60008060408385031215610372576103716105be565b5b600061038085828601610331565b925050602061039185828601610346565b9150509250929050565b6000602082840312156103b1576103b06105be565b5b60006103bf84828501610346565b91505092915050565b60006103d38261044d565b6103dd8185610458565b93506103ed8185602086016104b2565b6103f6816105c3565b840191505092915050565b61040a8161049b565b82525050565b6000602082019050818103600083015261042a81846103c8565b905092915050565b60006020820190506104476000830184610401565b92915050565b600081519050919050565b600082825260208201905092915050565b60006104748261047b565b9050919050565b600073ffffffffffffffffffffffffffffffffffffffff82169050919050565b6000819050919050565b600060ff82169050919050565b60005b838110156104d05780820151818401526020810190506104b5565b838111156104df576000848401525b50505050565b600060028204905060018216806104fd57607f821691505b602082108114156105115761051061058f565b5b50919050565b60006105228261049b565b91507fffffffffffffffffffffffffffffffffffffffffffffffffffffffffffffffff82141561055557610554610560565b5b600182019050919050565b7f4e487b7100000000000000000000000000000000000000000000000000000000600052601160045260246000fd5b7f4e487b7100000000000000000000000000000000000000000000000000000000600052602260045260246000fd5b600080fd5b6000601f19601f8301169050919050565b6105dd81610469565b81146105e857600080fd5b50565b6105f4816104a5565b81146105ff57600080fd5b5056fe436f6e67726174756c6174696f6e2120596f757220766f7465207761732061636365707465642e596f752063616e206f6e6c792063686f6f73652066726f6d20746865206c6973742ea2646970667358221220cf467db217c4c5c85e84a06ee412327a7d727da7e15ae58d19779730427ae88264736f6c63430008070033",
			"opcodes": "PUSH1 0x80 PUSH1 0x40 MSTORE CALLVALUE DUP1 ISZERO PUSH3 0x11 JUMPI PUSH1 0x0 DUP1 REVERT JUMPDEST POP PUSH1 0x40 MLOAD PUSH3 0xA5A CODESIZE SUB DUP1 PUSH3 0xA5A DUP4 CODECOPY DUP2 DUP2 ADD PUSH1 0x40 MSTORE DUP2 ADD SWAP1 PUSH3 0x37 SWAP2 SWAP1 PUSH3 0x1B8 JUMP JUMPDEST DUP2 PUSH1 0x2 SWAP1 DUP1 MLOAD SWAP1 PUSH1 0x20 ADD SWAP1 PUSH3 0x4F SWAP3 SWAP2 SWAP1 PUSH3 0x73 JUMP JUMPDEST POP DUP1 PUSH1 0x3 PUSH1 0x14 PUSH2 0x100 EXP DUP2 SLOAD DUP2 PUSH1 0xFF MUL NOT AND SWAP1 DUP4 PUSH1 0xFF AND MUL OR SWAP1 SSTORE POP POP POP PUSH3 0x3C9 JUMP JUMPDEST DUP3 DUP1 SLOAD PUSH3 0x81 SWAP1 PUSH3 0x2C0 JUMP JUMPDEST SWAP1 PUSH1 0x0 MSTORE PUSH1 0x20 PUSH1 0x0 KECCAK256 SWAP1 PUSH1 0x1F ADD PUSH1 0x20 SWAP1 DIV DUP2 ADD SWAP3 DUP3 PUSH3 0xA5 JUMPI PUSH1 0x0 DUP6 SSTORE PUSH3 0xF1 JUMP JUMPDEST DUP3 PUSH1 0x1F LT PUSH3 0xC0 JUMPI DUP1 MLOAD PUSH1 0xFF NOT AND DUP4 DUP1 ADD OR DUP6 SSTORE PUSH3 0xF1 JUMP JUMPDEST DUP3 DUP1 ADD PUSH1 0x1 ADD DUP6 SSTORE DUP3 ISZERO PUSH3 0xF1 JUMPI SWAP2 DUP3 ADD JUMPDEST DUP3 DUP2 GT ISZERO PUSH3 0xF0 JUMPI DUP3 MLOAD DUP3 SSTORE SWAP2 PUSH1 0x20 ADD SWAP2 SWAP1 PUSH1 0x1 ADD SWAP1 PUSH3 0xD3 JUMP JUMPDEST JUMPDEST POP SWAP1 POP PUSH3 0x100 SWAP2 SWAP1 PUSH3 0x104 JUMP JUMPDEST POP SWAP1 JUMP JUMPDEST JUMPDEST DUP1 DUP3 GT ISZERO PUSH3 0x11F JUMPI PUSH1 0x0 DUP2 PUSH1 0x0 SWAP1 SSTORE POP PUSH1 0x1 ADD PUSH3 0x105 JUMP JUMPDEST POP SWAP1 JUMP JUMPDEST PUSH1 0x0 PUSH3 0x13A PUSH3 0x134 DUP5 PUSH3 0x247 JUMP JUMPDEST PUSH3 0x21E JUMP JUMPDEST SWAP1 POP DUP3 DUP2 MSTORE PUSH1 0x20 DUP2 ADD DUP5 DUP5 DUP5 ADD GT ISZERO PUSH3 0x159 JUMPI PUSH3 0x158 PUSH3 0x38F JUMP JUMPDEST JUMPDEST PUSH3 0x166 DUP5 DUP3 DUP6 PUSH3 0x28A JUMP JUMPDEST POP SWAP4 SWAP3 POP POP POP JUMP JUMPDEST PUSH1 0x0 DUP3 PUSH1 0x1F DUP4 ADD SLT PUSH3 0x186 JUMPI PUSH3 0x185 PUSH3 0x38A JUMP JUMPDEST JUMPDEST DUP2 MLOAD PUSH3 0x198 DUP5 DUP3 PUSH1 0x20 DUP7 ADD PUSH3 0x123 JUMP JUMPDEST SWAP2 POP POP SWAP3 SWAP2 POP POP JUMP JUMPDEST PUSH1 0x0 DUP2 MLOAD SWAP1 POP PUSH3 0x1B2 DUP2 PUSH3 0x3AF JUMP JUMPDEST SWAP3 SWAP2 POP POP JUMP JUMPDEST PUSH1 0x0 DUP1 PUSH1 0x40 DUP4 DUP6 SUB SLT ISZERO PUSH3 0x1D2 JUMPI PUSH3 0x1D1 PUSH3 0x399 JUMP JUMPDEST JUMPDEST PUSH1 0x0 DUP4 ADD MLOAD PUSH8 0xFFFFFFFFFFFFFFFF DUP2 GT ISZERO PUSH3 0x1F3 JUMPI PUSH3 0x1F2 PUSH3 0x394 JUMP JUMPDEST JUMPDEST PUSH3 0x201 DUP6 DUP3 DUP7 ADD PUSH3 0x16E JUMP JUMPDEST SWAP3 POP POP PUSH1 0x20 PUSH3 0x214 DUP6 DUP3 DUP7 ADD PUSH3 0x1A1 JUMP JUMPDEST SWAP2 POP POP SWAP3 POP SWAP3 SWAP1 POP JUMP JUMPDEST PUSH1 0x0 PUSH3 0x22A PUSH3 0x23D JUMP JUMPDEST SWAP1 POP PUSH3 0x238 DUP3 DUP3 PUSH3 0x2F6 JUMP JUMPDEST SWAP2 SWAP1 POP JUMP JUMPDEST PUSH1 0x0 PUSH1 0x40 MLOAD SWAP1 POP SWAP1 JUMP JUMPDEST PUSH1 0x0 PUSH8 0xFFFFFFFFFFFFFFFF DUP3 GT ISZERO PUSH3 0x265 JUMPI PUSH3 0x264 PUSH3 0x35B JUMP JUMPDEST JUMPDEST PUSH3 0x270 DUP3 PUSH3 0x39E JUMP JUMPDEST SWAP1 POP PUSH1 0x20 DUP2 ADD SWAP1 POP SWAP2 SWAP1 POP JUMP JUMPDEST PUSH1 0x0 PUSH1 0xFF DUP3 AND SWAP1 POP SWAP2 SWAP1 POP JUMP JUMPDEST PUSH1 0x0 JUMPDEST DUP4 DUP2 LT ISZERO PUSH3 0x2AA JUMPI DUP1 DUP3 ADD MLOAD DUP2 DUP5 ADD MSTORE PUSH1 0x20 DUP2 ADD SWAP1 POP PUSH3 0x28D JUMP JUMPDEST DUP4 DUP2 GT ISZERO PUSH3 0x2BA JUMPI PUSH1 0x0 DUP5 DUP5 ADD MSTORE JUMPDEST POP POP POP POP JUMP JUMPDEST PUSH1 0x0 PUSH1 0x2 DUP3 DIV SWAP1 POP PUSH1 0x1 DUP3 AND DUP1 PUSH3 0x2D9 JUMPI PUSH1 0x7F DUP3 AND SWAP2 POP JUMPDEST PUSH1 0x20 DUP3 LT DUP2 EQ ISZERO PUSH3 0x2F0 JUMPI PUSH3 0x2EF PUSH3 0x32C JUMP JUMPDEST JUMPDEST POP SWAP2 SWAP1 POP JUMP JUMPDEST PUSH3 0x301 DUP3 PUSH3 0x39E JUMP JUMPDEST DUP2 ADD DUP2 DUP2 LT PUSH8 0xFFFFFFFFFFFFFFFF DUP3 GT OR ISZERO PUSH3 0x323 JUMPI PUSH3 0x322 PUSH3 0x35B JUMP JUMPDEST JUMPDEST DUP1 PUSH1 0x40 MSTORE POP POP POP JUMP JUMPDEST PUSH32 0x4E487B7100000000000000000000000000000000000000000000000000000000 PUSH1 0x0 MSTORE PUSH1 0x22 PUSH1 0x4 MSTORE PUSH1 0x24 PUSH1 0x0 REVERT JUMPDEST PUSH32 0x4E487B7100000000000000000000000000000000000000000000000000000000 PUSH1 0x0 MSTORE PUSH1 0x41 PUSH1 0x4 MSTORE PUSH1 0x24 PUSH1 0x0 REVERT JUMPDEST PUSH1 0x0 DUP1 REVERT JUMPDEST PUSH1 0x0 DUP1 REVERT JUMPDEST PUSH1 0x0 DUP1 REVERT JUMPDEST PUSH1 0x0 DUP1 REVERT JUMPDEST PUSH1 0x0 PUSH1 0x1F NOT PUSH1 0x1F DUP4 ADD AND SWAP1 POP SWAP2 SWAP1 POP JUMP JUMPDEST PUSH3 0x3BA DUP2 PUSH3 0x27D JUMP JUMPDEST DUP2 EQ PUSH3 0x3C6 JUMPI PUSH1 0x0 DUP1 REVERT JUMPDEST POP JUMP JUMPDEST PUSH2 0x681 DUP1 PUSH3 0x3D9 PUSH1 0x0 CODECOPY PUSH1 0x0 RETURN INVALID PUSH1 0x80 PUSH1 0x40 MSTORE CALLVALUE DUP1 ISZERO PUSH2 0x10 JUMPI PUSH1 0x0 DUP1 REVERT JUMPDEST POP PUSH1 0x4 CALLDATASIZE LT PUSH2 0x41 JUMPI PUSH1 0x0 CALLDATALOAD PUSH1 0xE0 SHR DUP1 PUSH4 0x5CFA4185 EQ PUSH2 0x46 JUMPI DUP1 PUSH4 0xE6AC2C82 EQ PUSH2 0x64 JUMPI DUP1 PUSH4 0xF4CD9D74 EQ PUSH2 0x94 JUMPI JUMPDEST PUSH1 0x0 DUP1 REVERT JUMPDEST PUSH2 0x4E PUSH2 0xC4 JUMP JUMPDEST PUSH1 0x40 MLOAD PUSH2 0x5B SWAP2 SWAP1 PUSH2 0x410 JUMP JUMPDEST PUSH1 0x40 MLOAD DUP1 SWAP2 SUB SWAP1 RETURN JUMPDEST PUSH2 0x7E PUSH1 0x4 DUP1 CALLDATASIZE SUB DUP2 ADD SWAP1 PUSH2 0x79 SWAP2 SWAP1 PUSH2 0x35B JUMP JUMPDEST PUSH2 0x156 JUMP JUMPDEST PUSH1 0x40 MLOAD PUSH2 0x8B SWAP2 SWAP1 PUSH2 0x410 JUMP JUMPDEST PUSH1 0x40 MLOAD DUP1 SWAP2 SUB SWAP1 RETURN JUMPDEST PUSH2 0xAE PUSH1 0x4 DUP1 CALLDATASIZE SUB DUP2 ADD SWAP1 PUSH2 0xA9 SWAP2 SWAP1 PUSH2 0x39B JUMP JUMPDEST PUSH2 0x2D9 JUMP JUMPDEST PUSH1 0x40 MLOAD PUSH2 0xBB SWAP2 SWAP1 PUSH2 0x432 JUMP JUMPDEST PUSH1 0x40 MLOAD DUP1 SWAP2 SUB SWAP1 RETURN JUMPDEST PUSH1 0x60 PUSH1 0x2 DUP1 SLOAD PUSH2 0xD3 SWAP1 PUSH2 0x4E5 JUMP JUMPDEST DUP1 PUSH1 0x1F ADD PUSH1 0x20 DUP1 SWAP2 DIV MUL PUSH1 0x20 ADD PUSH1 0x40 MLOAD SWAP1 DUP2 ADD PUSH1 0x40 MSTORE DUP1 SWAP3 SWAP2 SWAP1 DUP2 DUP2 MSTORE PUSH1 0x20 ADD DUP3 DUP1 SLOAD PUSH2 0xFF SWAP1 PUSH2 0x4E5 JUMP JUMPDEST DUP1 ISZERO PUSH2 0x14C JUMPI DUP1 PUSH1 0x1F LT PUSH2 0x121 JUMPI PUSH2 0x100 DUP1 DUP4 SLOAD DIV MUL DUP4 MSTORE SWAP2 PUSH1 0x20 ADD SWAP2 PUSH2 0x14C JUMP JUMPDEST DUP3 ADD SWAP2 SWAP1 PUSH1 0x0 MSTORE PUSH1 0x20 PUSH1 0x0 KECCAK256 SWAP1 JUMPDEST DUP2 SLOAD DUP2 MSTORE SWAP1 PUSH1 0x1 ADD SWAP1 PUSH1 0x20 ADD DUP1 DUP4 GT PUSH2 0x12F JUMPI DUP3 SWAP1 SUB PUSH1 0x1F AND DUP3 ADD SWAP2 JUMPDEST POP POP POP POP POP SWAP1 POP SWAP1 JUMP JUMPDEST PUSH1 0x60 DUP2 PUSH1 0xFF AND PUSH1 0x1 LT DUP1 PUSH2 0x17E JUMPI POP PUSH1 0x3 PUSH1 0x14 SWAP1 SLOAD SWAP1 PUSH2 0x100 EXP SWAP1 DIV PUSH1 0xFF AND PUSH1 0xFF AND DUP3 PUSH1 0xFF AND GT JUMPDEST ISZERO PUSH2 0x1A3 JUMPI PUSH1 0x40 MLOAD DUP1 PUSH1 0x60 ADD PUSH1 0x40 MSTORE DUP1 PUSH1 0x22 DUP2 MSTORE PUSH1 0x20 ADD PUSH2 0x62A PUSH1 0x22 SWAP2 CODECOPY SWAP1 POP PUSH2 0x2D3 JUMP JUMPDEST PUSH1 0x0 DUP1 DUP5 PUSH20 0xFFFFFFFFFFFFFFFFFFFFFFFFFFFFFFFFFFFFFFFF AND PUSH20 0xFFFFFFFFFFFFFFFFFFFFFFFFFFFFFFFFFFFFFFFF AND DUP2 MSTORE PUSH1 0x20 ADD SWAP1 DUP2 MSTORE PUSH1 0x20 ADD PUSH1 0x0 KECCAK256 PUSH1 0x0 SWAP1 SLOAD SWAP1 PUSH2 0x100 EXP SWAP1 DIV PUSH1 0xFF AND ISZERO PUSH2 0x231 JUMPI PUSH1 0x40 MLOAD DUP1 PUSH1 0x40 ADD PUSH1 0x40 MSTORE DUP1 PUSH1 0x16 DUP2 MSTORE PUSH1 0x20 ADD PUSH32 0x596F752063616E6E6F7420766F74652074776963652E00000000000000000000 DUP2 MSTORE POP SWAP1 POP PUSH2 0x2D3 JUMP JUMPDEST PUSH1 0x1 PUSH1 0x0 DUP4 PUSH1 0xFF AND PUSH1 0xFF AND DUP2 MSTORE PUSH1 0x20 ADD SWAP1 DUP2 MSTORE PUSH1 0x20 ADD PUSH1 0x0 KECCAK256 PUSH1 0x0 DUP2 SLOAD DUP1 SWAP3 SWAP2 SWAP1 PUSH2 0x25B SWAP1 PUSH2 0x517 JUMP JUMPDEST SWAP2 SWAP1 POP SSTORE POP PUSH1 0x1 PUSH1 0x0 DUP1 DUP6 PUSH20 0xFFFFFFFFFFFFFFFFFFFFFFFFFFFFFFFFFFFFFFFF AND PUSH20 0xFFFFFFFFFFFFFFFFFFFFFFFFFFFFFFFFFFFFFFFF AND DUP2 MSTORE PUSH1 0x20 ADD SWAP1 DUP2 MSTORE PUSH1 0x20 ADD PUSH1 0x0 KECCAK256 PUSH1 0x0 PUSH2 0x100 EXP DUP2 SLOAD DUP2 PUSH1 0xFF MUL NOT AND SWAP1 DUP4 ISZERO ISZERO MUL OR SWAP1 SSTORE POP PUSH1 0x40 MLOAD DUP1 PUSH1 0x60 ADD PUSH1 0x40 MSTORE DUP1 PUSH1 0x27 DUP2 MSTORE PUSH1 0x20 ADD PUSH2 0x603 PUSH1 0x27 SWAP2 CODECOPY SWAP1 POP JUMPDEST SWAP3 SWAP2 POP POP JUMP JUMPDEST PUSH1 0x0 DUP2 PUSH1 0xFF AND PUSH1 0x1 LT DUP1 PUSH2 0x301 JUMPI POP PUSH1 0x3 PUSH1 0x14 SWAP1 SLOAD SWAP1 PUSH2 0x100 EXP SWAP1 DIV PUSH1 0xFF AND PUSH1 0xFF AND DUP3 PUSH1 0xFF AND GT JUMPDEST ISZERO PUSH2 0x30F JUMPI PUSH1 0x0 SWAP1 POP PUSH2 0x32C JUMP JUMPDEST PUSH1 0x1 PUSH1 0x0 DUP4 PUSH1 0xFF AND PUSH1 0xFF AND DUP2 MSTORE PUSH1 0x20 ADD SWAP1 DUP2 MSTORE PUSH1 0x20 ADD PUSH1 0x0 KECCAK256 SLOAD SWAP1 POP JUMPDEST SWAP2 SWAP1 POP JUMP JUMPDEST PUSH1 0x0 DUP2 CALLDATALOAD SWAP1 POP PUSH2 0x340 DUP2 PUSH2 0x5D4 JUMP JUMPDEST SWAP3 SWAP2 POP POP JUMP JUMPDEST PUSH1 0x0 DUP2 CALLDATALOAD SWAP1 POP PUSH2 0x355 DUP2 PUSH2 0x5EB JUMP JUMPDEST SWAP3 SWAP2 POP POP JUMP JUMPDEST PUSH1 0x0 DUP1 PUSH1 0x40 DUP4 DUP6 SUB SLT ISZERO PUSH2 0x372 JUMPI PUSH2 0x371 PUSH2 0x5BE JUMP JUMPDEST JUMPDEST PUSH1 0x0 PUSH2 0x380 DUP6 DUP3 DUP7 ADD PUSH2 0x331 JUMP JUMPDEST SWAP3 POP POP PUSH1 0x20 PUSH2 0x391 DUP6 DUP3 DUP7 ADD PUSH2 0x346 JUMP JUMPDEST SWAP2 POP POP SWAP3 POP SWAP3 SWAP1 POP JUMP JUMPDEST PUSH1 0x0 PUSH1 0x20 DUP3 DUP5 SUB SLT ISZERO PUSH2 0x3B1 JUMPI PUSH2 0x3B0 PUSH2 0x5BE JUMP JUMPDEST JUMPDEST PUSH1 0x0 PUSH2 0x3BF DUP5 DUP3 DUP6 ADD PUSH2 0x346 JUMP JUMPDEST SWAP2 POP POP SWAP3 SWAP2 POP POP JUMP JUMPDEST PUSH1 0x0 PUSH2 0x3D3 DUP3 PUSH2 0x44D JUMP JUMPDEST PUSH2 0x3DD DUP2 DUP6 PUSH2 0x458 JUMP JUMPDEST SWAP4 POP PUSH2 0x3ED DUP2 DUP6 PUSH1 0x20 DUP7 ADD PUSH2 0x4B2 JUMP JUMPDEST PUSH2 0x3F6 DUP2 PUSH2 0x5C3 JUMP JUMPDEST DUP5 ADD SWAP2 POP POP SWAP3 SWAP2 POP POP JUMP JUMPDEST PUSH2 0x40A DUP2 PUSH2 0x49B JUMP JUMPDEST DUP3 MSTORE POP POP JUMP JUMPDEST PUSH1 0x0 PUSH1 0x20 DUP3 ADD SWAP1 POP DUP2 DUP2 SUB PUSH1 0x0 DUP4 ADD MSTORE PUSH2 0x42A DUP2 DUP5 PUSH2 0x3C8 JUMP JUMPDEST SWAP1 POP SWAP3 SWAP2 POP POP JUMP JUMPDEST PUSH1 0x0 PUSH1 0x20 DUP3 ADD SWAP1 POP PUSH2 0x447 PUSH1 0x0 DUP4 ADD DUP5 PUSH2 0x401 JUMP JUMPDEST SWAP3 SWAP2 POP POP JUMP JUMPDEST PUSH1 0x0 DUP2 MLOAD SWAP1 POP SWAP2 SWAP1 POP JUMP JUMPDEST PUSH1 0x0 DUP3 DUP3 MSTORE PUSH1 0x20 DUP3 ADD SWAP1 POP SWAP3 SWAP2 POP POP JUMP JUMPDEST PUSH1 0x0 PUSH2 0x474 DUP3 PUSH2 0x47B JUMP JUMPDEST SWAP1 POP SWAP2 SWAP1 POP JUMP JUMPDEST PUSH1 0x0 PUSH20 0xFFFFFFFFFFFFFFFFFFFFFFFFFFFFFFFFFFFFFFFF DUP3 AND SWAP1 POP SWAP2 SWAP1 POP JUMP JUMPDEST PUSH1 0x0 DUP2 SWAP1 POP SWAP2 SWAP1 POP JUMP JUMPDEST PUSH1 0x0 PUSH1 0xFF DUP3 AND SWAP1 POP SWAP2 SWAP1 POP JUMP JUMPDEST PUSH1 0x0 JUMPDEST DUP4 DUP2 LT ISZERO PUSH2 0x4D0 JUMPI DUP1 DUP3 ADD MLOAD DUP2 DUP5 ADD MSTORE PUSH1 0x20 DUP2 ADD SWAP1 POP PUSH2 0x4B5 JUMP JUMPDEST DUP4 DUP2 GT ISZERO PUSH2 0x4DF JUMPI PUSH1 0x0 DUP5 DUP5 ADD MSTORE JUMPDEST POP POP POP POP JUMP JUMPDEST PUSH1 0x0 PUSH1 0x2 DUP3 DIV SWAP1 POP PUSH1 0x1 DUP3 AND DUP1 PUSH2 0x4FD JUMPI PUSH1 0x7F DUP3 AND SWAP2 POP JUMPDEST PUSH1 0x20 DUP3 LT DUP2 EQ ISZERO PUSH2 0x511 JUMPI PUSH2 0x510 PUSH2 0x58F JUMP JUMPDEST JUMPDEST POP SWAP2 SWAP1 POP JUMP JUMPDEST PUSH1 0x0 PUSH2 0x522 DUP3 PUSH2 0x49B JUMP JUMPDEST SWAP2 POP PUSH32 0xFFFFFFFFFFFFFFFFFFFFFFFFFFFFFFFFFFFFFFFFFFFFFFFFFFFFFFFFFFFFFFFF DUP3 EQ ISZERO PUSH2 0x555 JUMPI PUSH2 0x554 PUSH2 0x560 JUMP JUMPDEST JUMPDEST PUSH1 0x1 DUP3 ADD SWAP1 POP SWAP2 SWAP1 POP JUMP JUMPDEST PUSH32 0x4E487B7100000000000000000000000000000000000000000000000000000000 PUSH1 0x0 MSTORE PUSH1 0x11 PUSH1 0x4 MSTORE PUSH1 0x24 PUSH1 0x0 REVERT JUMPDEST PUSH32 0x4E487B7100000000000000000000000000000000000000000000000000000000 PUSH1 0x0 MSTORE PUSH1 0x22 PUSH1 0x4 MSTORE PUSH1 0x24 PUSH1 0x0 REVERT JUMPDEST PUSH1 0x0 DUP1 REVERT JUMPDEST PUSH1 0x0 PUSH1 0x1F NOT PUSH1 0x1F DUP4 ADD AND SWAP1 POP SWAP2 SWAP1 POP JUMP JUMPDEST PUSH2 0x5DD DUP2 PUSH2 0x469 JUMP JUMPDEST DUP2 EQ PUSH2 0x5E8 JUMPI PUSH1 0x0 DUP1 REVERT JUMPDEST POP JUMP JUMPDEST PUSH2 0x5F4 DUP2 PUSH2 0x4A5 JUMP JUMPDEST DUP2 EQ PUSH2 0x5FF JUMPI PUSH1 0x0 DUP1 REVERT JUMPDEST POP JUMP INVALID NUMBER PUSH16 0x6E67726174756C6174696F6E2120596F PUSH22 0x7220766F7465207761732061636365707465642E596F PUSH22 0x2063616E206F6E6C792063686F6F73652066726F6D20 PUSH21 0x6865206C6973742EA2646970667358221220CF467D 0xB2 OR 0xC4 0xC5 0xC8 0x5E DUP5 LOG0 PUSH15 0xE412327A7D727DA7E15AE58D197797 ADDRESS TIMESTAMP PUSH27 0xE88264736F6C634300080700330000000000000000000000000000 "
		},
		"gasEstimates": {
			"creation": {
				"codeDepositCost": "333000",
				"executionCost": "infinite",
				"totalCost": "infinite"
			},
			"external": {
				"give_a_vote(address,uint8)": "infinite",
				"look_a_text()": "infinite",
				"statistics(uint8)": "5079"
			}
		},
		"methodIdentifiers": {
			"give_a_vote(address,uint8)": "e6ac2c82",
			"look_a_text()": "5cfa4185",
			"statistics(uint8)": "f4cd9d74"
		}
	},
	"abi": [
		{
			"inputs": [
				{
					"internalType": "string",
					"name": "_text_of_question",
					"type": "string"
				},
				{
					"internalType": "uint8",
					"name": "_count_of_questions",
					"type": "uint8"
				}
			],
			"stateMutability": "nonpayable",
			"type": "constructor"
		},
		{
			"inputs": [
				{
					"internalType": "address",
					"name": "voter",
					"type": "address"
				},
				{
					"internalType": "uint8",
					"name": "number",
					"type": "uint8"
				}
			],
			"name": "give_a_vote",
			"outputs": [
				{
					"internalType": "string",
					"name": "",
					"type": "string"
				}
			],
			"stateMutability": "nonpayable",
			"type": "function"
		},
		{
			"inputs": [],
			"name": "look_a_text",
			"outputs": [
				{
					"internalType": "string",
					"name": "",
					"type": "string"
				}
			],
			"stateMutability": "view",
			"type": "function"
		},
		{
			"inputs": [
				{
					"internalType": "uint8",
					"name": "number",
					"type": "uint8"
				}
			],
			"name": "statistics",
			"outputs": [
				{
					"internalType": "uint256",
					"name": "",
					"type": "uint256"
				}
			],
			"stateMutability": "view",
			"type": "function"
		}
	]
}